{
  "contractName": "Course",
  "abi": [
    {
      "inputs": [
        {
          "internalType": "address",
          "name": "_owner",
          "type": "address"
        },
        {
          "internalType": "uint256",
          "name": "_coursePrice",
          "type": "uint256"
        },
        {
          "internalType": "uint256",
          "name": "_courseId",
          "type": "uint256"
        }
      ],
      "stateMutability": "nonpayable",
      "type": "constructor"
    },
    {
      "inputs": [],
      "name": "owner",
      "outputs": [
        {
          "internalType": "address payable",
          "name": "",
          "type": "address"
        }
      ],
      "stateMutability": "view",
      "type": "function"
    },
    {
      "stateMutability": "payable",
      "type": "receive"
    },
    {
      "inputs": [
        {
          "internalType": "address",
          "name": "sender",
          "type": "address"
        }
      ],
      "name": "checkIfUserPurchased",
      "outputs": [
        {
          "internalType": "bool",
          "name": "",
          "type": "bool"
        }
      ],
      "stateMutability": "view",
      "type": "function"
    },
    {
      "inputs": [
        {
          "internalType": "address",
          "name": "sender",
          "type": "address"
        }
      ],
      "name": "payInTokens",
      "outputs": [],
      "stateMutability": "payable",
      "type": "function"
    },
    {
      "inputs": [],
      "name": "getCoursePriceInWei",
      "outputs": [
        {
          "internalType": "uint256",
          "name": "",
          "type": "uint256"
        }
      ],
      "stateMutability": "view",
      "type": "function"
    }
  ],
  "bytecode": "0x608060405234801561001057600080fd5b5060405161083338038061083383398181016040528101906100329190610121565b826000806101000a81548173ffffffffffffffffffffffffffffffffffffffff021916908373ffffffffffffffffffffffffffffffffffffffff1602179055508160028190555080600381905550505050610174565b600080fd5b600073ffffffffffffffffffffffffffffffffffffffff82169050919050565b60006100b88261008d565b9050919050565b6100c8816100ad565b81146100d357600080fd5b50565b6000815190506100e5816100bf565b92915050565b6000819050919050565b6100fe816100eb565b811461010957600080fd5b50565b60008151905061011b816100f5565b92915050565b60008060006060848603121561013a57610139610088565b5b6000610148868287016100d6565b93505060206101598682870161010c565b925050604061016a8682870161010c565b9150509250925092565b6106b0806101836000396000f3fe6080604052600436106100435760003560e01c8063264c8071146102455780638da5cb5b146102825780639658310c146102ad578063c43a4b21146102c957610240565b3661024057600160003373ffffffffffffffffffffffffffffffffffffffff1673ffffffffffffffffffffffffffffffffffffffff16815260200190815260200160002060009054906101000a900460ff16156100d5576040517f08c379a00000000000000000000000000000000000000000000000000000000081526004016100cc9061042f565b60405180910390fd5b60025434101561011a576040517f08c379a0000000000000000000000000000000000000000000000000000000008152600401610111906104c1565b60405180910390fd5b60006002543461012a919061051a565b9050600081111561017d573373ffffffffffffffffffffffffffffffffffffffff166108fc829081150290604051600060405180830381858888f1935050505015801561017b573d6000803e3d6000fd5b505b60008054906101000a900473ffffffffffffffffffffffffffffffffffffffff1673ffffffffffffffffffffffffffffffffffffffff166108fc6002549081150290604051600060405180830381858888f193505050501580156101e5573d6000803e3d6000fd5b5060018060003373ffffffffffffffffffffffffffffffffffffffff1673ffffffffffffffffffffffffffffffffffffffff16815260200190815260200160002060006101000a81548160ff02191690831515021790555050005b600080fd5b34801561025157600080fd5b5061026c600480360381019061026791906105b1565b6102f4565b60405161027991906105f9565b60405180910390f35b34801561028e57600080fd5b5061029761034a565b6040516102a49190610635565b60405180910390f35b6102c760048036038101906102c291906105b1565b61036e565b005b3480156102d557600080fd5b506102de6103c8565b6040516102eb919061065f565b60405180910390f35b6000600160008373ffffffffffffffffffffffffffffffffffffffff1673ffffffffffffffffffffffffffffffffffffffff16815260200190815260200160002060009054906101000a900460ff169050919050565b60008054906101000a900473ffffffffffffffffffffffffffffffffffffffff1681565b60018060008373ffffffffffffffffffffffffffffffffffffffff1673ffffffffffffffffffffffffffffffffffffffff16815260200190815260200160002060006101000a81548160ff02191690831515021790555050565b6000600254905090565b600082825260208201905092915050565b7f416c72656164792070757263686173656420636f757273650000000000000000600082015250565b60006104196018836103d2565b9150610424826103e3565b602082019050919050565b600060208201905081810360008301526104488161040c565b9050919050565b7f4e6f7420656e6f7567682066756e647320666f72207472616e73616374696f6e60008201527f2e00000000000000000000000000000000000000000000000000000000000000602082015250565b60006104ab6021836103d2565b91506104b68261044f565b604082019050919050565b600060208201905081810360008301526104da8161049e565b9050919050565b6000819050919050565b7f4e487b7100000000000000000000000000000000000000000000000000000000600052601160045260246000fd5b6000610525826104e1565b9150610530836104e1565b925082821015610543576105426104eb565b5b828203905092915050565b600080fd5b600073ffffffffffffffffffffffffffffffffffffffff82169050919050565b600061057e82610553565b9050919050565b61058e81610573565b811461059957600080fd5b50565b6000813590506105ab81610585565b92915050565b6000602082840312156105c7576105c661054e565b5b60006105d58482850161059c565b91505092915050565b60008115159050919050565b6105f3816105de565b82525050565b600060208201905061060e60008301846105ea565b92915050565b600061061f82610553565b9050919050565b61062f81610614565b82525050565b600060208201905061064a6000830184610626565b92915050565b610659816104e1565b82525050565b60006020820190506106746000830184610650565b9291505056fea26469706673582212208167cf57193fd11bc945dcd77e104743be3ac293bc106b88a55c094540b6f87664736f6c63430008090033",
  "immutableReferences": {},
  "source": "//SPDX-License-Identifier: MIT\r\n\r\npragma solidity ^0.8.9;\r\n\r\ncontract Course {\r\n    address payable public owner;\r\n    mapping (address =>bool) usersPurchased;\r\n    uint coursePriceInWei;\r\n    uint courseId;\r\n\r\n    constructor(address _owner,uint _coursePrice,uint _courseId){\r\n        owner = payable(_owner);\r\n        coursePriceInWei = _coursePrice;\r\n        courseId = _courseId;\r\n    }\r\n\r\n    modifier alreadyPurchased(){\r\n        require(!usersPurchased[msg.sender], \"Already purchased course\");\r\n        _;\r\n    }\r\n\r\n    receive() external payable alreadyPurchased {\r\n        require(msg.value >= coursePriceInWei, \"Not enough funds for transaction.\");\r\n\r\n         uint256 amountToRefund = msg.value - coursePriceInWei;\r\n            if (amountToRefund > 0) {\r\n            payable(msg.sender).transfer(amountToRefund);\r\n         }\r\n\r\n        owner.transfer(coursePriceInWei);\r\n        usersPurchased[msg.sender] = true;\r\n    }\r\n\r\n    function checkIfUserPurchased(address sender) public view returns(bool){\r\n         return usersPurchased[sender];\r\n    } \r\n\r\n    function payInTokens(address sender) external  payable{\r\n        usersPurchased[sender] = true;\r\n    }\r\n\r\n      function getCoursePriceInWei() external view returns (uint){\r\n          return coursePriceInWei;\r\n      }\r\n}",
  "sourcePath": "C:\\Stefan\\Serverless-Ethereum\\smart_contracts\\contracts\\Course.sol",
  "compiler": {
    "name": "solc",
    "version": "0.8.9+commit.e5eed63a.Emscripten.clang"
  },
  "schemaVersion": "3.4.14",
  "updatedAt": "2023-08-14T14:26:22.933Z",
  "devdoc": {
    "kind": "dev",
    "methods": {},
    "version": 1
  },
  "userdoc": {
    "kind": "user",
    "methods": {},
    "version": 1
  }
}