{
  "contractName": "CourseManager",
  "abi": [
    {
      "inputs": [],
      "stateMutability": "nonpayable",
      "type": "constructor"
    },
    {
      "inputs": [
        {
          "internalType": "uint256",
          "name": "courseId",
          "type": "uint256"
        },
        {
          "internalType": "uint256",
          "name": "coursePrice",
          "type": "uint256"
        }
      ],
      "name": "deployCourse",
      "outputs": [],
      "stateMutability": "nonpayable",
      "type": "function"
    },
    {
      "inputs": [
        {
          "internalType": "address",
          "name": "owner",
          "type": "address"
        },
        {
          "internalType": "uint256",
          "name": "courseId",
          "type": "uint256"
        }
      ],
      "name": "getCourse",
      "outputs": [
        {
          "internalType": "address",
          "name": "",
          "type": "address"
        }
      ],
      "stateMutability": "view",
      "type": "function"
    },
    {
      "inputs": [
        {
          "internalType": "uint256",
          "name": "courseId",
          "type": "uint256"
        }
      ],
      "name": "getOwnerByCourseId",
      "outputs": [
        {
          "internalType": "address",
          "name": "",
          "type": "address"
        }
      ],
      "stateMutability": "view",
      "type": "function"
    }
  ],
  "bytecode": "0x608060405234801561001057600080fd5b50610f07806100206000396000f3fe608060405234801561001057600080fd5b50600436106100415760003560e01c8063264a1d93146100465780638b11014814610076578063a2e5cb8714610092575b600080fd5b610060600480360381019061005b91906103a9565b6100c2565b60405161006d91906103f8565b60405180910390f35b610090600480360381019061008b9190610413565b61013c565b005b6100ac60048036038101906100a79190610453565b6102c6565b6040516100b991906103f8565b60405180910390f35b60008060008473ffffffffffffffffffffffffffffffffffffffff1673ffffffffffffffffffffffffffffffffffffffff168152602001908152602001600020600083815260200190815260200160002060009054906101000a900473ffffffffffffffffffffffffffffffffffffffff16905092915050565b600033828460405161014d90610303565b6101599392919061048f565b604051809103906000f080158015610175573d6000803e3d6000fd5b509050600073ffffffffffffffffffffffffffffffffffffffff166001600085815260200190815260200160002060009054906101000a900473ffffffffffffffffffffffffffffffffffffffff1673ffffffffffffffffffffffffffffffffffffffff16141561023357336001600085815260200190815260200160002060006101000a81548173ffffffffffffffffffffffffffffffffffffffff021916908373ffffffffffffffffffffffffffffffffffffffff1602179055505b806000803373ffffffffffffffffffffffffffffffffffffffff1673ffffffffffffffffffffffffffffffffffffffff168152602001908152602001600020600085815260200190815260200160002060006101000a81548173ffffffffffffffffffffffffffffffffffffffff021916908373ffffffffffffffffffffffffffffffffffffffff160217905550505050565b60006001600083815260200190815260200160002060009054906101000a900473ffffffffffffffffffffffffffffffffffffffff169050919050565b610a0b806104c783390190565b600080fd5b600073ffffffffffffffffffffffffffffffffffffffff82169050919050565b600061034082610315565b9050919050565b61035081610335565b811461035b57600080fd5b50565b60008135905061036d81610347565b92915050565b6000819050919050565b61038681610373565b811461039157600080fd5b50565b6000813590506103a38161037d565b92915050565b600080604083850312156103c0576103bf610310565b5b60006103ce8582860161035e565b92505060206103df85828601610394565b9150509250929050565b6103f281610335565b82525050565b600060208201905061040d60008301846103e9565b92915050565b6000806040838503121561042a57610429610310565b5b600061043885828601610394565b925050602061044985828601610394565b9150509250929050565b60006020828403121561046957610468610310565b5b600061047784828501610394565b91505092915050565b61048981610373565b82525050565b60006060820190506104a460008301866103e9565b6104b16020830185610480565b6104be6040830184610480565b94935050505056fe608060405234801561001057600080fd5b50604051610a0b380380610a0b83398181016040528101906100329190610121565b826000806101000a81548173ffffffffffffffffffffffffffffffffffffffff021916908373ffffffffffffffffffffffffffffffffffffffff1602179055508160018190555080600281905550505050610174565b600080fd5b600073ffffffffffffffffffffffffffffffffffffffff82169050919050565b60006100b88261008d565b9050919050565b6100c8816100ad565b81146100d357600080fd5b50565b6000815190506100e5816100bf565b92915050565b6000819050919050565b6100fe816100eb565b811461010957600080fd5b50565b60008151905061011b816100f5565b92915050565b60008060006060848603121561013a57610139610088565b5b6000610148868287016100d6565b93505060206101598682870161010c565b925050604061016a8682870161010c565b9150509250925092565b610888806101836000396000f3fe6080604052600436106100435760003560e01c806367589b6f146100885780638da5cb5b146100a4578063c43a4b21146100cf578063fddc6e4b146100fa57610083565b36610083576040517f08c379a000000000000000000000000000000000000000000000000000000000815260040161007a906103d7565b60405180910390fd5b600080fd5b6100a2600480360381019061009d9190610551565b610137565b005b3480156100b057600080fd5b506100b96102f1565b6040516100c691906105db565b60405180910390f35b3480156100db57600080fd5b506100e4610315565b6040516100f1919061060f565b60405180910390f35b34801561010657600080fd5b50610121600480360381019061011c9190610551565b61031f565b60405161012e9190610645565b60405180910390f35b8060038160405161014891906106da565b908152602001604051809103902060009054906101000a900460ff16156101a4576040517f08c379a000000000000000000000000000000000000000000000000000000000815260040161019b9061073d565b60405180910390fd5b6001543410156101e9576040517f08c379a00000000000000000000000000000000000000000000000000000000081526004016101e0906107cf565b60405180910390fd5b6000600154346101f9919061081e565b9050600081111561024c573373ffffffffffffffffffffffffffffffffffffffff166108fc829081150290604051600060405180830381858888f1935050505015801561024a573d6000803e3d6000fd5b505b60008054906101000a900473ffffffffffffffffffffffffffffffffffffffff1673ffffffffffffffffffffffffffffffffffffffff166108fc6001549081150290604051600060405180830381858888f193505050501580156102b4573d6000803e3d6000fd5b5060016003846040516102c791906106da565b908152602001604051809103902060006101000a81548160ff021916908315150217905550505050565b60008054906101000a900473ffffffffffffffffffffffffffffffffffffffff1681565b6000600154905090565b600060038260405161033191906106da565b908152602001604051809103902060009054906101000a900460ff169050919050565b600082825260208201905092915050565b7f496e76616c6964207573616765206f6620726563656976652066756e6374696f60008201527f6e00000000000000000000000000000000000000000000000000000000000000602082015250565b60006103c1602183610354565b91506103cc82610365565b604082019050919050565b600060208201905081810360008301526103f0816103b4565b9050919050565b6000604051905090565b600080fd5b600080fd5b600080fd5b600080fd5b6000601f19601f8301169050919050565b7f4e487b7100000000000000000000000000000000000000000000000000000000600052604160045260246000fd5b61045e82610415565b810181811067ffffffffffffffff8211171561047d5761047c610426565b5b80604052505050565b60006104906103f7565b905061049c8282610455565b919050565b600067ffffffffffffffff8211156104bc576104bb610426565b5b6104c582610415565b9050602081019050919050565b82818337600083830152505050565b60006104f46104ef846104a1565b610486565b9050828152602081018484840111156105105761050f610410565b5b61051b8482856104d2565b509392505050565b600082601f8301126105385761053761040b565b5b81356105488482602086016104e1565b91505092915050565b60006020828403121561056757610566610401565b5b600082013567ffffffffffffffff81111561058557610584610406565b5b61059184828501610523565b91505092915050565b600073ffffffffffffffffffffffffffffffffffffffff82169050919050565b60006105c58261059a565b9050919050565b6105d5816105ba565b82525050565b60006020820190506105f060008301846105cc565b92915050565b6000819050919050565b610609816105f6565b82525050565b60006020820190506106246000830184610600565b92915050565b60008115159050919050565b61063f8161062a565b82525050565b600060208201905061065a6000830184610636565b92915050565b600081519050919050565b600081905092915050565b60005b83811015610694578082015181840152602081019050610679565b838111156106a3576000848401525b50505050565b60006106b482610660565b6106be818561066b565b93506106ce818560208601610676565b80840191505092915050565b60006106e682846106a9565b915081905092915050565b7f416c72656164792070757263686173656420636f757273650000000000000000600082015250565b6000610727601883610354565b9150610732826106f1565b602082019050919050565b600060208201905081810360008301526107568161071a565b9050919050565b7f4e6f7420656e6f7567682066756e647320666f72207472616e73616374696f6e60008201527f2e00000000000000000000000000000000000000000000000000000000000000602082015250565b60006107b9602183610354565b91506107c48261075d565b604082019050919050565b600060208201905081810360008301526107e8816107ac565b9050919050565b7f4e487b7100000000000000000000000000000000000000000000000000000000600052601160045260246000fd5b6000610829826105f6565b9150610834836105f6565b925082821015610847576108466107ef565b5b82820390509291505056fea26469706673582212204f10bce7d3ebab072895cae074131696e6311cafea8f1a5a3efb68bc71b8198864736f6c63430008090033a26469706673582212205786ca913772f0fc1353e495e0cfd3eccb424c595400a367922c3a71ec83fb7764736f6c63430008090033",
  "immutableReferences": {},
  "source": "//SPDX-License-Identifier: MIT\r\npragma solidity ^0.8.9;\r\n\r\nimport \"./Course.sol\";\r\n\r\ncontract CourseManager {\r\n    mapping(address => mapping(uint => address)) courses;\r\n    mapping(uint => address) private courseOwners;\r\n    constructor(){}\r\n\r\n    function deployCourse(uint courseId, uint coursePrice) public {\r\n        address newCourse = address(new Course(msg.sender,coursePrice, courseId));\r\n        if (courseOwners[courseId] == address(0)) {\r\n            // Only set the owner if it's not already set\r\n            courseOwners[courseId] = msg.sender;\r\n        }\r\n        courses[msg.sender][courseId] = newCourse;\r\n    }\r\n\r\n    function getCourse(address owner, uint courseId) external  view returns (address) {\r\n        return courses[owner][courseId];\r\n    }\r\n\r\n    function getOwnerByCourseId(uint courseId) external view returns (address) {\r\n        return courseOwners[courseId];\r\n    }\r\n}",
  "sourcePath": "C:\\Stefan\\Serverless-Ethereum\\smart_contracts\\contracts\\CourseManager.sol",
  "compiler": {
    "name": "solc",
    "version": "0.8.9+commit.e5eed63a.Emscripten.clang"
  },
  "schemaVersion": "3.4.14",
  "updatedAt": "2023-08-14T16:50:56.096Z",
  "devdoc": {
    "kind": "dev",
    "methods": {},
    "version": 1
  },
  "userdoc": {
    "kind": "user",
    "methods": {},
    "version": 1
  }
}