{
  "contractName": "CryptoCert",
  "abi": [
    {
      "inputs": [],
      "stateMutability": "nonpayable",
      "type": "constructor"
    },
    {
      "anonymous": false,
      "inputs": [
        {
          "indexed": true,
          "internalType": "address",
          "name": "owner",
          "type": "address"
        },
        {
          "indexed": true,
          "internalType": "address",
          "name": "approved",
          "type": "address"
        },
        {
          "indexed": true,
          "internalType": "uint256",
          "name": "tokenId",
          "type": "uint256"
        }
      ],
      "name": "Approval",
      "type": "event"
    },
    {
      "anonymous": false,
      "inputs": [
        {
          "indexed": true,
          "internalType": "address",
          "name": "owner",
          "type": "address"
        },
        {
          "indexed": true,
          "internalType": "address",
          "name": "operator",
          "type": "address"
        },
        {
          "indexed": false,
          "internalType": "bool",
          "name": "approved",
          "type": "bool"
        }
      ],
      "name": "ApprovalForAll",
      "type": "event"
    },
    {
      "anonymous": false,
      "inputs": [
        {
          "indexed": false,
          "internalType": "uint256",
          "name": "_fromTokenId",
          "type": "uint256"
        },
        {
          "indexed": false,
          "internalType": "uint256",
          "name": "_toTokenId",
          "type": "uint256"
        }
      ],
      "name": "BatchMetadataUpdate",
      "type": "event"
    },
    {
      "anonymous": false,
      "inputs": [
        {
          "indexed": false,
          "internalType": "uint256",
          "name": "_tokenId",
          "type": "uint256"
        }
      ],
      "name": "MetadataUpdate",
      "type": "event"
    },
    {
      "anonymous": false,
      "inputs": [
        {
          "indexed": true,
          "internalType": "address",
          "name": "previousOwner",
          "type": "address"
        },
        {
          "indexed": true,
          "internalType": "address",
          "name": "newOwner",
          "type": "address"
        }
      ],
      "name": "OwnershipTransferred",
      "type": "event"
    },
    {
      "anonymous": false,
      "inputs": [
        {
          "indexed": true,
          "internalType": "address",
          "name": "from",
          "type": "address"
        },
        {
          "indexed": true,
          "internalType": "address",
          "name": "to",
          "type": "address"
        },
        {
          "indexed": true,
          "internalType": "uint256",
          "name": "tokenId",
          "type": "uint256"
        }
      ],
      "name": "Transfer",
      "type": "event"
    },
    {
      "inputs": [
        {
          "internalType": "address",
          "name": "to",
          "type": "address"
        },
        {
          "internalType": "uint256",
          "name": "tokenId",
          "type": "uint256"
        }
      ],
      "name": "approve",
      "outputs": [],
      "stateMutability": "nonpayable",
      "type": "function"
    },
    {
      "inputs": [
        {
          "internalType": "address",
          "name": "owner",
          "type": "address"
        }
      ],
      "name": "balanceOf",
      "outputs": [
        {
          "internalType": "uint256",
          "name": "",
          "type": "uint256"
        }
      ],
      "stateMutability": "view",
      "type": "function",
      "constant": true
    },
    {
      "inputs": [
        {
          "internalType": "uint256",
          "name": "tokenId",
          "type": "uint256"
        }
      ],
      "name": "getApproved",
      "outputs": [
        {
          "internalType": "address",
          "name": "",
          "type": "address"
        }
      ],
      "stateMutability": "view",
      "type": "function",
      "constant": true
    },
    {
      "inputs": [
        {
          "internalType": "address",
          "name": "owner",
          "type": "address"
        },
        {
          "internalType": "address",
          "name": "operator",
          "type": "address"
        }
      ],
      "name": "isApprovedForAll",
      "outputs": [
        {
          "internalType": "bool",
          "name": "",
          "type": "bool"
        }
      ],
      "stateMutability": "view",
      "type": "function",
      "constant": true
    },
    {
      "inputs": [],
      "name": "name",
      "outputs": [
        {
          "internalType": "string",
          "name": "",
          "type": "string"
        }
      ],
      "stateMutability": "view",
      "type": "function",
      "constant": true
    },
    {
      "inputs": [],
      "name": "owner",
      "outputs": [
        {
          "internalType": "address",
          "name": "",
          "type": "address"
        }
      ],
      "stateMutability": "view",
      "type": "function",
      "constant": true
    },
    {
      "inputs": [
        {
          "internalType": "uint256",
          "name": "tokenId",
          "type": "uint256"
        }
      ],
      "name": "ownerOf",
      "outputs": [
        {
          "internalType": "address",
          "name": "",
          "type": "address"
        }
      ],
      "stateMutability": "view",
      "type": "function",
      "constant": true
    },
    {
      "inputs": [],
      "name": "renounceOwnership",
      "outputs": [],
      "stateMutability": "nonpayable",
      "type": "function"
    },
    {
      "inputs": [
        {
          "internalType": "address",
          "name": "from",
          "type": "address"
        },
        {
          "internalType": "address",
          "name": "to",
          "type": "address"
        },
        {
          "internalType": "uint256",
          "name": "tokenId",
          "type": "uint256"
        }
      ],
      "name": "safeTransferFrom",
      "outputs": [],
      "stateMutability": "nonpayable",
      "type": "function"
    },
    {
      "inputs": [
        {
          "internalType": "address",
          "name": "from",
          "type": "address"
        },
        {
          "internalType": "address",
          "name": "to",
          "type": "address"
        },
        {
          "internalType": "uint256",
          "name": "tokenId",
          "type": "uint256"
        },
        {
          "internalType": "bytes",
          "name": "data",
          "type": "bytes"
        }
      ],
      "name": "safeTransferFrom",
      "outputs": [],
      "stateMutability": "nonpayable",
      "type": "function"
    },
    {
      "inputs": [
        {
          "internalType": "address",
          "name": "operator",
          "type": "address"
        },
        {
          "internalType": "bool",
          "name": "approved",
          "type": "bool"
        }
      ],
      "name": "setApprovalForAll",
      "outputs": [],
      "stateMutability": "nonpayable",
      "type": "function"
    },
    {
      "inputs": [],
      "name": "symbol",
      "outputs": [
        {
          "internalType": "string",
          "name": "",
          "type": "string"
        }
      ],
      "stateMutability": "view",
      "type": "function",
      "constant": true
    },
    {
      "inputs": [
        {
          "internalType": "address",
          "name": "from",
          "type": "address"
        },
        {
          "internalType": "address",
          "name": "to",
          "type": "address"
        },
        {
          "internalType": "uint256",
          "name": "tokenId",
          "type": "uint256"
        }
      ],
      "name": "transferFrom",
      "outputs": [],
      "stateMutability": "nonpayable",
      "type": "function"
    },
    {
      "inputs": [
        {
          "internalType": "address",
          "name": "newOwner",
          "type": "address"
        }
      ],
      "name": "transferOwnership",
      "outputs": [],
      "stateMutability": "nonpayable",
      "type": "function"
    },
    {
      "inputs": [
        {
          "internalType": "address",
          "name": "to",
          "type": "address"
        },
        {
          "internalType": "uint256",
          "name": "tokenId",
          "type": "uint256"
        },
        {
          "internalType": "string",
          "name": "uri",
          "type": "string"
        }
      ],
      "name": "safeMint",
      "outputs": [],
      "stateMutability": "nonpayable",
      "type": "function"
    },
    {
      "inputs": [
        {
          "internalType": "uint256",
          "name": "tokenId",
          "type": "uint256"
        }
      ],
      "name": "tokenURI",
      "outputs": [
        {
          "internalType": "string",
          "name": "",
          "type": "string"
        }
      ],
      "stateMutability": "view",
      "type": "function",
      "constant": true
    },
    {
      "inputs": [
        {
          "internalType": "bytes4",
          "name": "interfaceId",
          "type": "bytes4"
        }
      ],
      "name": "supportsInterface",
      "outputs": [
        {
          "internalType": "bool",
          "name": "",
          "type": "bool"
        }
      ],
      "stateMutability": "view",
      "type": "function",
      "constant": true
    }
  ],
  "bytecode": "0x60806040523480156200001157600080fd5b506040518060400160405280600b81526020017f43727970746f20436572740000000000000000000000000000000000000000008152506040518060400160405280600381526020017f4352430000000000000000000000000000000000000000000000000000000000815250816000908051906020019062000096929190620001a6565b508060019080519060200190620000af929190620001a6565b505050620000d2620000c6620000d860201b60201c565b620000e060201b60201c565b620002bb565b600033905090565b6000600760009054906101000a900473ffffffffffffffffffffffffffffffffffffffff16905081600760006101000a81548173ffffffffffffffffffffffffffffffffffffffff021916908373ffffffffffffffffffffffffffffffffffffffff1602179055508173ffffffffffffffffffffffffffffffffffffffff168173ffffffffffffffffffffffffffffffffffffffff167f8be0079c531659141344cd1fd0a4f28419497f9722a3daafe3b4186f6b6457e060405160405180910390a35050565b828054620001b49062000285565b90600052602060002090601f016020900481019282620001d8576000855562000224565b82601f10620001f357805160ff191683800117855562000224565b8280016001018555821562000224579182015b828111156200022357825182559160200191906001019062000206565b5b50905062000233919062000237565b5090565b5b808211156200025257600081600090555060010162000238565b5090565b7f4e487b7100000000000000000000000000000000000000000000000000000000600052602260045260246000fd5b600060028204905060018216806200029e57607f821691505b60208210811415620002b557620002b462000256565b5b50919050565b612d0180620002cb6000396000f3fe608060405234801561001057600080fd5b506004361061010b5760003560e01c8063715018a6116100a2578063b88d4fde11610071578063b88d4fde146102a4578063c87b56dd146102c0578063cd279c7c146102f0578063e985e9c51461030c578063f2fde38b1461033c5761010b565b8063715018a6146102425780638da5cb5b1461024c57806395d89b411461026a578063a22cb465146102885761010b565b806323b872dd116100de57806323b872dd146101aa57806342842e0e146101c65780636352211e146101e257806370a08231146102125761010b565b806301ffc9a71461011057806306fdde0314610140578063081812fc1461015e578063095ea7b31461018e575b600080fd5b61012a60048036038101906101259190611d53565b610358565b6040516101379190611d9b565b60405180910390f35b61014861036a565b6040516101559190611e4f565b60405180910390f35b61017860048036038101906101739190611ea7565b6103fc565b6040516101859190611f15565b60405180910390f35b6101a860048036038101906101a39190611f5c565b610442565b005b6101c460048036038101906101bf9190611f9c565b61055a565b005b6101e060048036038101906101db9190611f9c565b6105ba565b005b6101fc60048036038101906101f79190611ea7565b6105da565b6040516102099190611f15565b60405180910390f35b61022c60048036038101906102279190611fef565b610661565b604051610239919061202b565b60405180910390f35b61024a610719565b005b61025461072d565b6040516102619190611f15565b60405180910390f35b610272610757565b60405161027f9190611e4f565b60405180910390f35b6102a2600480360381019061029d9190612072565b6107e9565b005b6102be60048036038101906102b991906121e7565b6107ff565b005b6102da60048036038101906102d59190611ea7565b610861565b6040516102e79190611e4f565b60405180910390f35b61030a6004803603810190610305919061230b565b610873565b005b6103266004803603810190610321919061237a565b610894565b6040516103339190611d9b565b60405180910390f35b61035660048036038101906103519190611fef565b610928565b005b6000610363826109ac565b9050919050565b606060008054610379906123e9565b80601f01602080910402602001604051908101604052809291908181526020018280546103a5906123e9565b80156103f25780601f106103c7576101008083540402835291602001916103f2565b820191906000526020600020905b8154815290600101906020018083116103d557829003601f168201915b5050505050905090565b600061040782610a0d565b6004600083815260200190815260200160002060009054906101000a900473ffffffffffffffffffffffffffffffffffffffff169050919050565b600061044d826105da565b90508073ffffffffffffffffffffffffffffffffffffffff168373ffffffffffffffffffffffffffffffffffffffff1614156104be576040517f08c379a00000000000000000000000000000000000000000000000000000000081526004016104b59061248d565b60405180910390fd5b8073ffffffffffffffffffffffffffffffffffffffff166104dd610a58565b73ffffffffffffffffffffffffffffffffffffffff16148061050c575061050b81610506610a58565b610894565b5b61054b576040517f08c379a00000000000000000000000000000000000000000000000000000000081526004016105429061251f565b60405180910390fd5b6105558383610a60565b505050565b61056b610565610a58565b82610b19565b6105aa576040517f08c379a00000000000000000000000000000000000000000000000000000000081526004016105a1906125b1565b60405180910390fd5b6105b5838383610bae565b505050565b6105d5838383604051806020016040528060008152506107ff565b505050565b6000806105e683610ea8565b9050600073ffffffffffffffffffffffffffffffffffffffff168173ffffffffffffffffffffffffffffffffffffffff161415610658576040517f08c379a000000000000000000000000000000000000000000000000000000000815260040161064f9061261d565b60405180910390fd5b80915050919050565b60008073ffffffffffffffffffffffffffffffffffffffff168273ffffffffffffffffffffffffffffffffffffffff1614156106d2576040517f08c379a00000000000000000000000000000000000000000000000000000000081526004016106c9906126af565b60405180910390fd5b600360008373ffffffffffffffffffffffffffffffffffffffff1673ffffffffffffffffffffffffffffffffffffffff168152602001908152602001600020549050919050565b610721610ee5565b61072b6000610f63565b565b6000600760009054906101000a900473ffffffffffffffffffffffffffffffffffffffff16905090565b606060018054610766906123e9565b80601f0160208091040260200160405190810160405280929190818152602001828054610792906123e9565b80156107df5780601f106107b4576101008083540402835291602001916107df565b820191906000526020600020905b8154815290600101906020018083116107c257829003601f168201915b5050505050905090565b6107fb6107f4610a58565b8383611029565b5050565b61081061080a610a58565b83610b19565b61084f576040517f08c379a0000000000000000000000000000000000000000000000000000000008152600401610846906125b1565b60405180910390fd5b61085b84848484611196565b50505050565b606061086c826111f2565b9050919050565b61087b610ee5565b6108858383611305565b61088f8282611323565b505050565b6000600560008473ffffffffffffffffffffffffffffffffffffffff1673ffffffffffffffffffffffffffffffffffffffff16815260200190815260200160002060008373ffffffffffffffffffffffffffffffffffffffff1673ffffffffffffffffffffffffffffffffffffffff16815260200190815260200160002060009054906101000a900460ff16905092915050565b610930610ee5565b600073ffffffffffffffffffffffffffffffffffffffff168173ffffffffffffffffffffffffffffffffffffffff1614156109a0576040517f08c379a000000000000000000000000000000000000000000000000000000000815260040161099790612741565b60405180910390fd5b6109a981610f63565b50565b6000634906490660e01b7bffffffffffffffffffffffffffffffffffffffffffffffffffffffff1916827bffffffffffffffffffffffffffffffffffffffffffffffffffffffff19161480610a065750610a05826113ce565b5b9050919050565b610a16816114b0565b610a55576040517f08c379a0000000000000000000000000000000000000000000000000000000008152600401610a4c9061261d565b60405180910390fd5b50565b600033905090565b816004600083815260200190815260200160002060006101000a81548173ffffffffffffffffffffffffffffffffffffffff021916908373ffffffffffffffffffffffffffffffffffffffff160217905550808273ffffffffffffffffffffffffffffffffffffffff16610ad3836105da565b73ffffffffffffffffffffffffffffffffffffffff167f8c5be1e5ebec7d5bd14f71427d1e84f3dd0314c0f7b2291e5b200ac8c7c3b92560405160405180910390a45050565b600080610b25836105da565b90508073ffffffffffffffffffffffffffffffffffffffff168473ffffffffffffffffffffffffffffffffffffffff161480610b675750610b668185610894565b5b80610ba557508373ffffffffffffffffffffffffffffffffffffffff16610b8d846103fc565b73ffffffffffffffffffffffffffffffffffffffff16145b91505092915050565b8273ffffffffffffffffffffffffffffffffffffffff16610bce826105da565b73ffffffffffffffffffffffffffffffffffffffff1614610c24576040517f08c379a0000000000000000000000000000000000000000000000000000000008152600401610c1b906127d3565b60405180910390fd5b600073ffffffffffffffffffffffffffffffffffffffff168273ffffffffffffffffffffffffffffffffffffffff161415610c94576040517f08c379a0000000000000000000000000000000000000000000000000000000008152600401610c8b90612865565b60405180910390fd5b610ca183838360016114f1565b8273ffffffffffffffffffffffffffffffffffffffff16610cc1826105da565b73ffffffffffffffffffffffffffffffffffffffff1614610d17576040517f08c379a0000000000000000000000000000000000000000000000000000000008152600401610d0e906127d3565b60405180910390fd5b6004600082815260200190815260200160002060006101000a81549073ffffffffffffffffffffffffffffffffffffffff02191690556001600360008573ffffffffffffffffffffffffffffffffffffffff1673ffffffffffffffffffffffffffffffffffffffff168152602001908152602001600020600082825403925050819055506001600360008473ffffffffffffffffffffffffffffffffffffffff1673ffffffffffffffffffffffffffffffffffffffff16815260200190815260200160002060008282540192505081905550816002600083815260200190815260200160002060006101000a81548173ffffffffffffffffffffffffffffffffffffffff021916908373ffffffffffffffffffffffffffffffffffffffff160217905550808273ffffffffffffffffffffffffffffffffffffffff168473ffffffffffffffffffffffffffffffffffffffff167fddf252ad1be2c89b69c2b068fc378daa952ba7f163c4a11628f55a4df523b3ef60405160405180910390a4610ea383838360016114f7565b505050565b60006002600083815260200190815260200160002060009054906101000a900473ffffffffffffffffffffffffffffffffffffffff169050919050565b610eed610a58565b73ffffffffffffffffffffffffffffffffffffffff16610f0b61072d565b73ffffffffffffffffffffffffffffffffffffffff1614610f61576040517f08c379a0000000000000000000000000000000000000000000000000000000008152600401610f58906128d1565b60405180910390fd5b565b6000600760009054906101000a900473ffffffffffffffffffffffffffffffffffffffff16905081600760006101000a81548173ffffffffffffffffffffffffffffffffffffffff021916908373ffffffffffffffffffffffffffffffffffffffff1602179055508173ffffffffffffffffffffffffffffffffffffffff168173ffffffffffffffffffffffffffffffffffffffff167f8be0079c531659141344cd1fd0a4f28419497f9722a3daafe3b4186f6b6457e060405160405180910390a35050565b8173ffffffffffffffffffffffffffffffffffffffff168373ffffffffffffffffffffffffffffffffffffffff161415611098576040517f08c379a000000000000000000000000000000000000000000000000000000000815260040161108f9061293d565b60405180910390fd5b80600560008573ffffffffffffffffffffffffffffffffffffffff1673ffffffffffffffffffffffffffffffffffffffff16815260200190815260200160002060008473ffffffffffffffffffffffffffffffffffffffff1673ffffffffffffffffffffffffffffffffffffffff16815260200190815260200160002060006101000a81548160ff0219169083151502179055508173ffffffffffffffffffffffffffffffffffffffff168373ffffffffffffffffffffffffffffffffffffffff167f17307eab39ab6107e8899845ad3d59bd9653f200f220920489ca2b5937696c31836040516111899190611d9b565b60405180910390a3505050565b6111a1848484610bae565b6111ad848484846114fd565b6111ec576040517f08c379a00000000000000000000000000000000000000000000000000000000081526004016111e3906129cf565b60405180910390fd5b50505050565b60606111fd82610a0d565b600060066000848152602001908152602001600020805461121d906123e9565b80601f0160208091040260200160405190810160405280929190818152602001828054611249906123e9565b80156112965780601f1061126b57610100808354040283529160200191611296565b820191906000526020600020905b81548152906001019060200180831161127957829003601f168201915b5050505050905060006112a7611694565b90506000815114156112bd578192505050611300565b6000825111156112f25780826040516020016112da929190612a2b565b60405160208183030381529060405292505050611300565b6112fb846116ab565b925050505b919050565b61131f828260405180602001604052806000815250611713565b5050565b61132c826114b0565b61136b576040517f08c379a000000000000000000000000000000000000000000000000000000000815260040161136290612ac1565b60405180910390fd5b80600660008481526020019081526020016000209080519060200190611392929190611c44565b507ff8e1a15aba9398e019f0b49df1a4fde98ee17ae345cb5f6b5e2c27f5033e8ce7826040516113c2919061202b565b60405180910390a15050565b60007f80ac58cd000000000000000000000000000000000000000000000000000000007bffffffffffffffffffffffffffffffffffffffffffffffffffffffff1916827bffffffffffffffffffffffffffffffffffffffffffffffffffffffff1916148061149957507f5b5e139f000000000000000000000000000000000000000000000000000000007bffffffffffffffffffffffffffffffffffffffffffffffffffffffff1916827bffffffffffffffffffffffffffffffffffffffffffffffffffffffff1916145b806114a957506114a88261176e565b5b9050919050565b60008073ffffffffffffffffffffffffffffffffffffffff166114d283610ea8565b73ffffffffffffffffffffffffffffffffffffffff1614159050919050565b50505050565b50505050565b600061151e8473ffffffffffffffffffffffffffffffffffffffff166117d8565b15611687578373ffffffffffffffffffffffffffffffffffffffff1663150b7a02611547610a58565b8786866040518563ffffffff1660e01b81526004016115699493929190612b36565b602060405180830381600087803b15801561158357600080fd5b505af19250505080156115b457506040513d601f19601f820116820180604052508101906115b19190612b97565b60015b611637573d80600081146115e4576040519150601f19603f3d011682016040523d82523d6000602084013e6115e9565b606091505b5060008151141561162f576040517f08c379a0000000000000000000000000000000000000000000000000000000008152600401611626906129cf565b60405180910390fd5b805181602001fd5b63150b7a0260e01b7bffffffffffffffffffffffffffffffffffffffffffffffffffffffff1916817bffffffffffffffffffffffffffffffffffffffffffffffffffffffff19161491505061168c565b600190505b949350505050565b606060405180602001604052806000815250905090565b60606116b682610a0d565b60006116c0611694565b905060008151116116e0576040518060200160405280600081525061170b565b806116ea846117fb565b6040516020016116fb929190612a2b565b6040516020818303038152906040525b915050919050565b61171d83836118d3565b61172a60008484846114fd565b611769576040517f08c379a0000000000000000000000000000000000000000000000000000000008152600401611760906129cf565b60405180910390fd5b505050565b60007f01ffc9a7000000000000000000000000000000000000000000000000000000007bffffffffffffffffffffffffffffffffffffffffffffffffffffffff1916827bffffffffffffffffffffffffffffffffffffffffffffffffffffffff1916149050919050565b6000808273ffffffffffffffffffffffffffffffffffffffff163b119050919050565b60606000600161180a84611af1565b01905060008167ffffffffffffffff811115611829576118286120bc565b5b6040519080825280601f01601f19166020018201604052801561185b5781602001600182028036833780820191505090505b509050600082602001820190505b6001156118c8578080600190039150507f3031323334353637383961626364656600000000000000000000000000000000600a86061a8153600a85816118b2576118b1612bc4565b5b04945060008514156118c3576118c8565b611869565b819350505050919050565b600073ffffffffffffffffffffffffffffffffffffffff168273ffffffffffffffffffffffffffffffffffffffff161415611943576040517f08c379a000000000000000000000000000000000000000000000000000000000815260040161193a90612c3f565b60405180910390fd5b61194c816114b0565b1561198c576040517f08c379a000000000000000000000000000000000000000000000000000000000815260040161198390612cab565b60405180910390fd5b61199a6000838360016114f1565b6119a3816114b0565b156119e3576040517f08c379a00000000000000000000000000000000000000000000000000000000081526004016119da90612cab565b60405180910390fd5b6001600360008473ffffffffffffffffffffffffffffffffffffffff1673ffffffffffffffffffffffffffffffffffffffff16815260200190815260200160002060008282540192505081905550816002600083815260200190815260200160002060006101000a81548173ffffffffffffffffffffffffffffffffffffffff021916908373ffffffffffffffffffffffffffffffffffffffff160217905550808273ffffffffffffffffffffffffffffffffffffffff16600073ffffffffffffffffffffffffffffffffffffffff167fddf252ad1be2c89b69c2b068fc378daa952ba7f163c4a11628f55a4df523b3ef60405160405180910390a4611aed6000838360016114f7565b5050565b600080600090507a184f03e93ff9f4daa797ed6e38ed64bf6a1f0100000000000000008310611b4f577a184f03e93ff9f4daa797ed6e38ed64bf6a1f0100000000000000008381611b4557611b44612bc4565b5b0492506040810190505b6d04ee2d6d415b85acef81000000008310611b8c576d04ee2d6d415b85acef81000000008381611b8257611b81612bc4565b5b0492506020810190505b662386f26fc100008310611bbb57662386f26fc100008381611bb157611bb0612bc4565b5b0492506010810190505b6305f5e1008310611be4576305f5e1008381611bda57611bd9612bc4565b5b0492506008810190505b6127108310611c09576127108381611bff57611bfe612bc4565b5b0492506004810190505b60648310611c2c5760648381611c2257611c21612bc4565b5b0492506002810190505b600a8310611c3b576001810190505b80915050919050565b828054611c50906123e9565b90600052602060002090601f016020900481019282611c725760008555611cb9565b82601f10611c8b57805160ff1916838001178555611cb9565b82800160010185558215611cb9579182015b82811115611cb8578251825591602001919060010190611c9d565b5b509050611cc69190611cca565b5090565b5b80821115611ce3576000816000905550600101611ccb565b5090565b6000604051905090565b600080fd5b600080fd5b60007fffffffff0000000000000000000000000000000000000000000000000000000082169050919050565b611d3081611cfb565b8114611d3b57600080fd5b50565b600081359050611d4d81611d27565b92915050565b600060208284031215611d6957611d68611cf1565b5b6000611d7784828501611d3e565b91505092915050565b60008115159050919050565b611d9581611d80565b82525050565b6000602082019050611db06000830184611d8c565b92915050565b600081519050919050565b600082825260208201905092915050565b60005b83811015611df0578082015181840152602081019050611dd5565b83811115611dff576000848401525b50505050565b6000601f19601f8301169050919050565b6000611e2182611db6565b611e2b8185611dc1565b9350611e3b818560208601611dd2565b611e4481611e05565b840191505092915050565b60006020820190508181036000830152611e698184611e16565b905092915050565b6000819050919050565b611e8481611e71565b8114611e8f57600080fd5b50565b600081359050611ea181611e7b565b92915050565b600060208284031215611ebd57611ebc611cf1565b5b6000611ecb84828501611e92565b91505092915050565b600073ffffffffffffffffffffffffffffffffffffffff82169050919050565b6000611eff82611ed4565b9050919050565b611f0f81611ef4565b82525050565b6000602082019050611f2a6000830184611f06565b92915050565b611f3981611ef4565b8114611f4457600080fd5b50565b600081359050611f5681611f30565b92915050565b60008060408385031215611f7357611f72611cf1565b5b6000611f8185828601611f47565b9250506020611f9285828601611e92565b9150509250929050565b600080600060608486031215611fb557611fb4611cf1565b5b6000611fc386828701611f47565b9350506020611fd486828701611f47565b9250506040611fe586828701611e92565b9150509250925092565b60006020828403121561200557612004611cf1565b5b600061201384828501611f47565b91505092915050565b61202581611e71565b82525050565b6000602082019050612040600083018461201c565b92915050565b61204f81611d80565b811461205a57600080fd5b50565b60008135905061206c81612046565b92915050565b6000806040838503121561208957612088611cf1565b5b600061209785828601611f47565b92505060206120a88582860161205d565b9150509250929050565b600080fd5b600080fd5b7f4e487b7100000000000000000000000000000000000000000000000000000000600052604160045260246000fd5b6120f482611e05565b810181811067ffffffffffffffff82111715612113576121126120bc565b5b80604052505050565b6000612126611ce7565b905061213282826120eb565b919050565b600067ffffffffffffffff821115612152576121516120bc565b5b61215b82611e05565b9050602081019050919050565b82818337600083830152505050565b600061218a61218584612137565b61211c565b9050828152602081018484840111156121a6576121a56120b7565b5b6121b1848285612168565b509392505050565b600082601f8301126121ce576121cd6120b2565b5b81356121de848260208601612177565b91505092915050565b6000806000806080858703121561220157612200611cf1565b5b600061220f87828801611f47565b945050602061222087828801611f47565b935050604061223187828801611e92565b925050606085013567ffffffffffffffff81111561225257612251611cf6565b5b61225e878288016121b9565b91505092959194509250565b600067ffffffffffffffff821115612285576122846120bc565b5b61228e82611e05565b9050602081019050919050565b60006122ae6122a98461226a565b61211c565b9050828152602081018484840111156122ca576122c96120b7565b5b6122d5848285612168565b509392505050565b600082601f8301126122f2576122f16120b2565b5b813561230284826020860161229b565b91505092915050565b60008060006060848603121561232457612323611cf1565b5b600061233286828701611f47565b935050602061234386828701611e92565b925050604084013567ffffffffffffffff81111561236457612363611cf6565b5b612370868287016122dd565b9150509250925092565b6000806040838503121561239157612390611cf1565b5b600061239f85828601611f47565b92505060206123b085828601611f47565b9150509250929050565b7f4e487b7100000000000000000000000000000000000000000000000000000000600052602260045260246000fd5b6000600282049050600182168061240157607f821691505b60208210811415612415576124146123ba565b5b50919050565b7f4552433732313a20617070726f76616c20746f2063757272656e74206f776e6560008201527f7200000000000000000000000000000000000000000000000000000000000000602082015250565b6000612477602183611dc1565b91506124828261241b565b604082019050919050565b600060208201905081810360008301526124a68161246a565b9050919050565b7f4552433732313a20617070726f76652063616c6c6572206973206e6f7420746f60008201527f6b656e206f776e6572206f7220617070726f76656420666f7220616c6c000000602082015250565b6000612509603d83611dc1565b9150612514826124ad565b604082019050919050565b60006020820190508181036000830152612538816124fc565b9050919050565b7f4552433732313a2063616c6c6572206973206e6f7420746f6b656e206f776e6560008201527f72206f7220617070726f76656400000000000000000000000000000000000000602082015250565b600061259b602d83611dc1565b91506125a68261253f565b604082019050919050565b600060208201905081810360008301526125ca8161258e565b9050919050565b7f4552433732313a20696e76616c696420746f6b656e2049440000000000000000600082015250565b6000612607601883611dc1565b9150612612826125d1565b602082019050919050565b60006020820190508181036000830152612636816125fa565b9050919050565b7f4552433732313a2061646472657373207a65726f206973206e6f74206120766160008201527f6c6964206f776e65720000000000000000000000000000000000000000000000602082015250565b6000612699602983611dc1565b91506126a48261263d565b604082019050919050565b600060208201905081810360008301526126c88161268c565b9050919050565b7f4f776e61626c653a206e6577206f776e657220697320746865207a65726f206160008201527f6464726573730000000000000000000000000000000000000000000000000000602082015250565b600061272b602683611dc1565b9150612736826126cf565b604082019050919050565b6000602082019050818103600083015261275a8161271e565b9050919050565b7f4552433732313a207472616e736665722066726f6d20696e636f72726563742060008201527f6f776e6572000000000000000000000000000000000000000000000000000000602082015250565b60006127bd602583611dc1565b91506127c882612761565b604082019050919050565b600060208201905081810360008301526127ec816127b0565b9050919050565b7f4552433732313a207472616e7366657220746f20746865207a65726f2061646460008201527f7265737300000000000000000000000000000000000000000000000000000000602082015250565b600061284f602483611dc1565b915061285a826127f3565b604082019050919050565b6000602082019050818103600083015261287e81612842565b9050919050565b7f4f776e61626c653a2063616c6c6572206973206e6f7420746865206f776e6572600082015250565b60006128bb602083611dc1565b91506128c682612885565b602082019050919050565b600060208201905081810360008301526128ea816128ae565b9050919050565b7f4552433732313a20617070726f766520746f2063616c6c657200000000000000600082015250565b6000612927601983611dc1565b9150612932826128f1565b602082019050919050565b600060208201905081810360008301526129568161291a565b9050919050565b7f4552433732313a207472616e7366657220746f206e6f6e20455243373231526560008201527f63656976657220696d706c656d656e7465720000000000000000000000000000602082015250565b60006129b9603283611dc1565b91506129c48261295d565b604082019050919050565b600060208201905081810360008301526129e8816129ac565b9050919050565b600081905092915050565b6000612a0582611db6565b612a0f81856129ef565b9350612a1f818560208601611dd2565b80840191505092915050565b6000612a3782856129fa565b9150612a4382846129fa565b91508190509392505050565b7f45524337323155524953746f726167653a2055524920736574206f66206e6f6e60008201527f6578697374656e7420746f6b656e000000000000000000000000000000000000602082015250565b6000612aab602e83611dc1565b9150612ab682612a4f565b604082019050919050565b60006020820190508181036000830152612ada81612a9e565b9050919050565b600081519050919050565b600082825260208201905092915050565b6000612b0882612ae1565b612b128185612aec565b9350612b22818560208601611dd2565b612b2b81611e05565b840191505092915050565b6000608082019050612b4b6000830187611f06565b612b586020830186611f06565b612b65604083018561201c565b8181036060830152612b778184612afd565b905095945050505050565b600081519050612b9181611d27565b92915050565b600060208284031215612bad57612bac611cf1565b5b6000612bbb84828501612b82565b91505092915050565b7f4e487b7100000000000000000000000000000000000000000000000000000000600052601260045260246000fd5b7f4552433732313a206d696e7420746f20746865207a65726f2061646472657373600082015250565b6000612c29602083611dc1565b9150612c3482612bf3565b602082019050919050565b60006020820190508181036000830152612c5881612c1c565b9050919050565b7f4552433732313a20746f6b656e20616c7265616479206d696e74656400000000600082015250565b6000612c95601c83611dc1565b9150612ca082612c5f565b602082019050919050565b60006020820190508181036000830152612cc481612c88565b905091905056fea2646970667358221220c1c86216ca4a569748f9abd56ae41c0fb752dfc7059fb5f157048c08dfa9fcff64736f6c63430008090033",
  "immutableReferences": {},
  "source": "// SPDX-License-Identifier: MIT\r\npragma solidity ^0.8.9;\r\n\r\nimport \"@openzeppelin/contracts/token/ERC721/ERC721.sol\";\r\nimport \"@openzeppelin/contracts/token/ERC721/extensions/ERC721URIStorage.sol\";\r\nimport \"@openzeppelin/contracts/access/Ownable.sol\";\r\n\r\ncontract CryptoCert is ERC721, ERC721URIStorage, Ownable {\r\n    constructor() ERC721(\"Crypto Cert\", \"CRC\") {}\r\n\r\n    function safeMint(address to, uint256 tokenId, string memory uri)\r\n        public\r\n        onlyOwner\r\n    {\r\n        _safeMint(to, tokenId);\r\n        _setTokenURI(tokenId, uri);\r\n    }\r\n\r\n    // The following functions are overrides required by Solidity.\r\n\r\n    function _burn(uint256 tokenId) internal override(ERC721, ERC721URIStorage) {\r\n        super._burn(tokenId);\r\n    }\r\n\r\n    function tokenURI(uint256 tokenId)\r\n        public\r\n        view\r\n        override(ERC721, ERC721URIStorage)\r\n        returns (string memory)\r\n    {\r\n        return super.tokenURI(tokenId);\r\n    }\r\n\r\n    function supportsInterface(bytes4 interfaceId)\r\n        public\r\n        view\r\n        override(ERC721, ERC721URIStorage)\r\n        returns (bool)\r\n    {\r\n        return super.supportsInterface(interfaceId);\r\n    }\r\n}",
  "sourcePath": "C:\\Stefan\\Serverless-Ethereum\\smart_contracts\\contracts\\CryptoCert.sol",
  "compiler": {
    "name": "solc",
    "version": "0.8.9+commit.e5eed63a.Emscripten.clang"
  },
  "schemaVersion": "3.4.14",
  "updatedAt": "2023-08-26T08:47:51.357Z",
  "networkType": "ethereum",
  "devdoc": {
    "kind": "dev",
    "methods": {
      "approve(address,uint256)": {
        "details": "See {IERC721-approve}."
      },
      "balanceOf(address)": {
        "details": "See {IERC721-balanceOf}."
      },
      "getApproved(uint256)": {
        "details": "See {IERC721-getApproved}."
      },
      "isApprovedForAll(address,address)": {
        "details": "See {IERC721-isApprovedForAll}."
      },
      "name()": {
        "details": "See {IERC721Metadata-name}."
      },
      "owner()": {
        "details": "Returns the address of the current owner."
      },
      "ownerOf(uint256)": {
        "details": "See {IERC721-ownerOf}."
      },
      "renounceOwnership()": {
        "details": "Leaves the contract without owner. It will not be possible to call `onlyOwner` functions. Can only be called by the current owner. NOTE: Renouncing ownership will leave the contract without an owner, thereby disabling any functionality that is only available to the owner."
      },
      "safeTransferFrom(address,address,uint256)": {
        "details": "See {IERC721-safeTransferFrom}."
      },
      "safeTransferFrom(address,address,uint256,bytes)": {
        "details": "See {IERC721-safeTransferFrom}."
      },
      "setApprovalForAll(address,bool)": {
        "details": "See {IERC721-setApprovalForAll}."
      },
      "symbol()": {
        "details": "See {IERC721Metadata-symbol}."
      },
      "transferFrom(address,address,uint256)": {
        "details": "See {IERC721-transferFrom}."
      },
      "transferOwnership(address)": {
        "details": "Transfers ownership of the contract to a new account (`newOwner`). Can only be called by the current owner."
      }
    },
    "version": 1
  },
  "userdoc": {
    "kind": "user",
    "methods": {},
    "version": 1
  }
}