{
  "contractName": "NFT",
  "abi": [
    {
      "inputs": [],
      "stateMutability": "nonpayable",
      "type": "constructor"
    },
    {
      "anonymous": false,
      "inputs": [
        {
          "indexed": true,
          "internalType": "address",
          "name": "owner",
          "type": "address"
        },
        {
          "indexed": true,
          "internalType": "address",
          "name": "approved",
          "type": "address"
        },
        {
          "indexed": true,
          "internalType": "uint256",
          "name": "tokenId",
          "type": "uint256"
        }
      ],
      "name": "Approval",
      "type": "event"
    },
    {
      "anonymous": false,
      "inputs": [
        {
          "indexed": true,
          "internalType": "address",
          "name": "owner",
          "type": "address"
        },
        {
          "indexed": true,
          "internalType": "address",
          "name": "operator",
          "type": "address"
        },
        {
          "indexed": false,
          "internalType": "bool",
          "name": "approved",
          "type": "bool"
        }
      ],
      "name": "ApprovalForAll",
      "type": "event"
    },
    {
      "anonymous": false,
      "inputs": [
        {
          "indexed": false,
          "internalType": "uint256",
          "name": "_fromTokenId",
          "type": "uint256"
        },
        {
          "indexed": false,
          "internalType": "uint256",
          "name": "_toTokenId",
          "type": "uint256"
        }
      ],
      "name": "BatchMetadataUpdate",
      "type": "event"
    },
    {
      "anonymous": false,
      "inputs": [
        {
          "indexed": false,
          "internalType": "uint256",
          "name": "_tokenId",
          "type": "uint256"
        }
      ],
      "name": "MetadataUpdate",
      "type": "event"
    },
    {
      "anonymous": false,
      "inputs": [
        {
          "indexed": true,
          "internalType": "address",
          "name": "from",
          "type": "address"
        },
        {
          "indexed": true,
          "internalType": "address",
          "name": "to",
          "type": "address"
        },
        {
          "indexed": true,
          "internalType": "uint256",
          "name": "tokenId",
          "type": "uint256"
        }
      ],
      "name": "Transfer",
      "type": "event"
    },
    {
      "inputs": [
        {
          "internalType": "address",
          "name": "to",
          "type": "address"
        },
        {
          "internalType": "uint256",
          "name": "tokenId",
          "type": "uint256"
        }
      ],
      "name": "approve",
      "outputs": [],
      "stateMutability": "nonpayable",
      "type": "function"
    },
    {
      "inputs": [
        {
          "internalType": "address",
          "name": "owner",
          "type": "address"
        }
      ],
      "name": "balanceOf",
      "outputs": [
        {
          "internalType": "uint256",
          "name": "",
          "type": "uint256"
        }
      ],
      "stateMutability": "view",
      "type": "function",
      "constant": true
    },
    {
      "inputs": [
        {
          "internalType": "uint256",
          "name": "tokenId",
          "type": "uint256"
        }
      ],
      "name": "getApproved",
      "outputs": [
        {
          "internalType": "address",
          "name": "",
          "type": "address"
        }
      ],
      "stateMutability": "view",
      "type": "function",
      "constant": true
    },
    {
      "inputs": [
        {
          "internalType": "address",
          "name": "owner",
          "type": "address"
        },
        {
          "internalType": "address",
          "name": "operator",
          "type": "address"
        }
      ],
      "name": "isApprovedForAll",
      "outputs": [
        {
          "internalType": "bool",
          "name": "",
          "type": "bool"
        }
      ],
      "stateMutability": "view",
      "type": "function",
      "constant": true
    },
    {
      "inputs": [],
      "name": "name",
      "outputs": [
        {
          "internalType": "string",
          "name": "",
          "type": "string"
        }
      ],
      "stateMutability": "view",
      "type": "function",
      "constant": true
    },
    {
      "inputs": [
        {
          "internalType": "uint256",
          "name": "tokenId",
          "type": "uint256"
        }
      ],
      "name": "ownerOf",
      "outputs": [
        {
          "internalType": "address",
          "name": "",
          "type": "address"
        }
      ],
      "stateMutability": "view",
      "type": "function",
      "constant": true
    },
    {
      "inputs": [
        {
          "internalType": "address",
          "name": "from",
          "type": "address"
        },
        {
          "internalType": "address",
          "name": "to",
          "type": "address"
        },
        {
          "internalType": "uint256",
          "name": "tokenId",
          "type": "uint256"
        }
      ],
      "name": "safeTransferFrom",
      "outputs": [],
      "stateMutability": "nonpayable",
      "type": "function"
    },
    {
      "inputs": [
        {
          "internalType": "address",
          "name": "from",
          "type": "address"
        },
        {
          "internalType": "address",
          "name": "to",
          "type": "address"
        },
        {
          "internalType": "uint256",
          "name": "tokenId",
          "type": "uint256"
        },
        {
          "internalType": "bytes",
          "name": "data",
          "type": "bytes"
        }
      ],
      "name": "safeTransferFrom",
      "outputs": [],
      "stateMutability": "nonpayable",
      "type": "function"
    },
    {
      "inputs": [
        {
          "internalType": "address",
          "name": "operator",
          "type": "address"
        },
        {
          "internalType": "bool",
          "name": "approved",
          "type": "bool"
        }
      ],
      "name": "setApprovalForAll",
      "outputs": [],
      "stateMutability": "nonpayable",
      "type": "function"
    },
    {
      "inputs": [
        {
          "internalType": "bytes4",
          "name": "interfaceId",
          "type": "bytes4"
        }
      ],
      "name": "supportsInterface",
      "outputs": [
        {
          "internalType": "bool",
          "name": "",
          "type": "bool"
        }
      ],
      "stateMutability": "view",
      "type": "function",
      "constant": true
    },
    {
      "inputs": [],
      "name": "symbol",
      "outputs": [
        {
          "internalType": "string",
          "name": "",
          "type": "string"
        }
      ],
      "stateMutability": "view",
      "type": "function",
      "constant": true
    },
    {
      "inputs": [
        {
          "internalType": "uint256",
          "name": "tokenId",
          "type": "uint256"
        }
      ],
      "name": "tokenURI",
      "outputs": [
        {
          "internalType": "string",
          "name": "",
          "type": "string"
        }
      ],
      "stateMutability": "view",
      "type": "function",
      "constant": true
    },
    {
      "inputs": [
        {
          "internalType": "address",
          "name": "from",
          "type": "address"
        },
        {
          "internalType": "address",
          "name": "to",
          "type": "address"
        },
        {
          "internalType": "uint256",
          "name": "tokenId",
          "type": "uint256"
        }
      ],
      "name": "transferFrom",
      "outputs": [],
      "stateMutability": "nonpayable",
      "type": "function"
    },
    {
      "inputs": [
        {
          "internalType": "address",
          "name": "to",
          "type": "address"
        },
        {
          "internalType": "uint256",
          "name": "tokenId",
          "type": "uint256"
        },
        {
          "internalType": "string",
          "name": "tokenURI",
          "type": "string"
        }
      ],
      "name": "safeMint",
      "outputs": [],
      "stateMutability": "nonpayable",
      "type": "function"
    }
  ],
  "bytecode": "0x608060405234801562000010575f80fd5b506040518060400160405280600381526020017f4e465400000000000000000000000000000000000000000000000000000000008152506040518060400160405280600281526020017f4e46000000000000000000000000000000000000000000000000000000000000815250815f90816200008d91906200030c565b5080600190816200009f91906200030c565b505050620003f0565b5f81519050919050565b7f4e487b71000000000000000000000000000000000000000000000000000000005f52604160045260245ffd5b7f4e487b71000000000000000000000000000000000000000000000000000000005f52602260045260245ffd5b5f60028204905060018216806200012457607f821691505b6020821081036200013a5762000139620000df565b5b50919050565b5f819050815f5260205f209050919050565b5f6020601f8301049050919050565b5f82821b905092915050565b5f600883026200019e7fffffffffffffffffffffffffffffffffffffffffffffffffffffffffffffffff8262000161565b620001aa868362000161565b95508019841693508086168417925050509392505050565b5f819050919050565b5f819050919050565b5f620001f4620001ee620001e884620001c2565b620001cb565b620001c2565b9050919050565b5f819050919050565b6200020f83620001d4565b620002276200021e82620001fb565b8484546200016d565b825550505050565b5f90565b6200023d6200022f565b6200024a81848462000204565b505050565b5b818110156200027157620002655f8262000233565b60018101905062000250565b5050565b601f821115620002c0576200028a8162000140565b620002958462000152565b81016020851015620002a5578190505b620002bd620002b48562000152565b8301826200024f565b50505b505050565b5f82821c905092915050565b5f620002e25f1984600802620002c5565b1980831691505092915050565b5f620002fc8383620002d1565b9150826002028217905092915050565b6200031782620000a8565b67ffffffffffffffff811115620003335762000332620000b2565b5b6200033f82546200010c565b6200034c82828562000275565b5f60209050601f83116001811462000382575f84156200036d578287015190505b620003798582620002ef565b865550620003e8565b601f198416620003928662000140565b5f5b82811015620003bb5784890151825560018201915060208501945060208101905062000394565b86831015620003db5784890151620003d7601f891682620002d1565b8355505b6001600288020188555050505b505050505050565b612a2680620003fe5f395ff3fe608060405234801561000f575f80fd5b50600436106100e8575f3560e01c806370a082311161008a578063b88d4fde11610064578063b88d4fde14610258578063c87b56dd14610274578063cd279c7c146102a4578063e985e9c5146102c0576100e8565b806370a08231146101ee57806395d89b411461021e578063a22cb4651461023c576100e8565b8063095ea7b3116100c6578063095ea7b31461016a57806323b872dd1461018657806342842e0e146101a25780636352211e146101be576100e8565b806301ffc9a7146100ec57806306fdde031461011c578063081812fc1461013a575b5f80fd5b6101066004803603810190610101919061198d565b6102f0565b60405161011391906119d2565b60405180910390f35b610124610350565b6040516101319190611a75565b60405180910390f35b610154600480360381019061014f9190611ac8565b6103df565b6040516101619190611b32565b60405180910390f35b610184600480360381019061017f9190611b75565b610421565b005b6101a0600480360381019061019b9190611bb3565b610537565b005b6101bc60048036038101906101b79190611bb3565b610597565b005b6101d860048036038101906101d39190611ac8565b6105b6565b6040516101e59190611b32565b60405180910390f35b61020860048036038101906102039190611c03565b61063a565b6040516102159190611c3d565b60405180910390f35b6102266106ee565b6040516102339190611a75565b60405180910390f35b61025660048036038101906102519190611c80565b61077e565b005b610272600480360381019061026d9190611dea565b610794565b005b61028e60048036038101906102899190611ac8565b6107f6565b60405161029b9190611a75565b60405180910390f35b6102be60048036038101906102b99190611f08565b610900565b005b6102da60048036038101906102d59190611f74565b610919565b6040516102e791906119d2565b60405180910390f35b5f634906490660e01b7bffffffffffffffffffffffffffffffffffffffffffffffffffffffff1916827bffffffffffffffffffffffffffffffffffffffffffffffffffffffff191614806103495750610348826109a7565b5b9050919050565b60605f805461035e90611fdf565b80601f016020809104026020016040519081016040528092919081815260200182805461038a90611fdf565b80156103d55780601f106103ac576101008083540402835291602001916103d5565b820191905f5260205f20905b8154815290600101906020018083116103b857829003601f168201915b5050505050905090565b5f6103e982610a88565b60045f8381526020019081526020015f205f9054906101000a900473ffffffffffffffffffffffffffffffffffffffff169050919050565b5f61042b826105b6565b90508073ffffffffffffffffffffffffffffffffffffffff168373ffffffffffffffffffffffffffffffffffffffff160361049b576040517f08c379a00000000000000000000000000000000000000000000000000000000081526004016104929061207f565b60405180910390fd5b8073ffffffffffffffffffffffffffffffffffffffff166104ba610ad3565b73ffffffffffffffffffffffffffffffffffffffff1614806104e957506104e8816104e3610ad3565b610919565b5b610528576040517f08c379a000000000000000000000000000000000000000000000000000000000815260040161051f9061210d565b60405180910390fd5b6105328383610ada565b505050565b610548610542610ad3565b82610b90565b610587576040517f08c379a000000000000000000000000000000000000000000000000000000000815260040161057e9061219b565b60405180910390fd5b610592838383610c24565b505050565b6105b183838360405180602001604052805f815250610794565b505050565b5f806105c183610f10565b90505f73ffffffffffffffffffffffffffffffffffffffff168173ffffffffffffffffffffffffffffffffffffffff1603610631576040517f08c379a000000000000000000000000000000000000000000000000000000000815260040161062890612203565b60405180910390fd5b80915050919050565b5f8073ffffffffffffffffffffffffffffffffffffffff168273ffffffffffffffffffffffffffffffffffffffff16036106a9576040517f08c379a00000000000000000000000000000000000000000000000000000000081526004016106a090612291565b60405180910390fd5b60035f8373ffffffffffffffffffffffffffffffffffffffff1673ffffffffffffffffffffffffffffffffffffffff1681526020019081526020015f20549050919050565b6060600180546106fd90611fdf565b80601f016020809104026020016040519081016040528092919081815260200182805461072990611fdf565b80156107745780601f1061074b57610100808354040283529160200191610774565b820191905f5260205f20905b81548152906001019060200180831161075757829003601f168201915b5050505050905090565b610790610789610ad3565b8383610f49565b5050565b6107a561079f610ad3565b83610b90565b6107e4576040517f08c379a00000000000000000000000000000000000000000000000000000000081526004016107db9061219b565b60405180910390fd5b6107f0848484846110b0565b50505050565b606061080182610a88565b5f60065f8481526020019081526020015f20805461081e90611fdf565b80601f016020809104026020016040519081016040528092919081815260200182805461084a90611fdf565b80156108955780601f1061086c57610100808354040283529160200191610895565b820191905f5260205f20905b81548152906001019060200180831161087857829003601f168201915b505050505090505f6108a561110c565b90505f8151036108b95781925050506108fb565b5f825111156108ed5780826040516020016108d59291906122e9565b604051602081830303815290604052925050506108fb565b6108f684611122565b925050505b919050565b61090a8383611187565b61091482826111a4565b505050565b5f60055f8473ffffffffffffffffffffffffffffffffffffffff1673ffffffffffffffffffffffffffffffffffffffff1681526020019081526020015f205f8373ffffffffffffffffffffffffffffffffffffffff1673ffffffffffffffffffffffffffffffffffffffff1681526020019081526020015f205f9054906101000a900460ff16905092915050565b5f7f80ac58cd000000000000000000000000000000000000000000000000000000007bffffffffffffffffffffffffffffffffffffffffffffffffffffffff1916827bffffffffffffffffffffffffffffffffffffffffffffffffffffffff19161480610a7157507f5b5e139f000000000000000000000000000000000000000000000000000000007bffffffffffffffffffffffffffffffffffffffffffffffffffffffff1916827bffffffffffffffffffffffffffffffffffffffffffffffffffffffff1916145b80610a815750610a8082611246565b5b9050919050565b610a91816112af565b610ad0576040517f08c379a0000000000000000000000000000000000000000000000000000000008152600401610ac790612203565b60405180910390fd5b50565b5f33905090565b8160045f8381526020019081526020015f205f6101000a81548173ffffffffffffffffffffffffffffffffffffffff021916908373ffffffffffffffffffffffffffffffffffffffff160217905550808273ffffffffffffffffffffffffffffffffffffffff16610b4a836105b6565b73ffffffffffffffffffffffffffffffffffffffff167f8c5be1e5ebec7d5bd14f71427d1e84f3dd0314c0f7b2291e5b200ac8c7c3b92560405160405180910390a45050565b5f80610b9b836105b6565b90508073ffffffffffffffffffffffffffffffffffffffff168473ffffffffffffffffffffffffffffffffffffffff161480610bdd5750610bdc8185610919565b5b80610c1b57508373ffffffffffffffffffffffffffffffffffffffff16610c03846103df565b73ffffffffffffffffffffffffffffffffffffffff16145b91505092915050565b8273ffffffffffffffffffffffffffffffffffffffff16610c44826105b6565b73ffffffffffffffffffffffffffffffffffffffff1614610c9a576040517f08c379a0000000000000000000000000000000000000000000000000000000008152600401610c919061237c565b60405180910390fd5b5f73ffffffffffffffffffffffffffffffffffffffff168273ffffffffffffffffffffffffffffffffffffffff1603610d08576040517f08c379a0000000000000000000000000000000000000000000000000000000008152600401610cff9061240a565b60405180910390fd5b610d1583838360016112ef565b8273ffffffffffffffffffffffffffffffffffffffff16610d35826105b6565b73ffffffffffffffffffffffffffffffffffffffff1614610d8b576040517f08c379a0000000000000000000000000000000000000000000000000000000008152600401610d829061237c565b60405180910390fd5b60045f8281526020019081526020015f205f6101000a81549073ffffffffffffffffffffffffffffffffffffffff0219169055600160035f8573ffffffffffffffffffffffffffffffffffffffff1673ffffffffffffffffffffffffffffffffffffffff1681526020019081526020015f205f8282540392505081905550600160035f8473ffffffffffffffffffffffffffffffffffffffff1673ffffffffffffffffffffffffffffffffffffffff1681526020019081526020015f205f82825401925050819055508160025f8381526020019081526020015f205f6101000a81548173ffffffffffffffffffffffffffffffffffffffff021916908373ffffffffffffffffffffffffffffffffffffffff160217905550808273ffffffffffffffffffffffffffffffffffffffff168473ffffffffffffffffffffffffffffffffffffffff167fddf252ad1be2c89b69c2b068fc378daa952ba7f163c4a11628f55a4df523b3ef60405160405180910390a4610f0b83838360016112f5565b505050565b5f60025f8381526020019081526020015f205f9054906101000a900473ffffffffffffffffffffffffffffffffffffffff169050919050565b8173ffffffffffffffffffffffffffffffffffffffff168373ffffffffffffffffffffffffffffffffffffffff1603610fb7576040517f08c379a0000000000000000000000000000000000000000000000000000000008152600401610fae90612472565b60405180910390fd5b8060055f8573ffffffffffffffffffffffffffffffffffffffff1673ffffffffffffffffffffffffffffffffffffffff1681526020019081526020015f205f8473ffffffffffffffffffffffffffffffffffffffff1673ffffffffffffffffffffffffffffffffffffffff1681526020019081526020015f205f6101000a81548160ff0219169083151502179055508173ffffffffffffffffffffffffffffffffffffffff168373ffffffffffffffffffffffffffffffffffffffff167f17307eab39ab6107e8899845ad3d59bd9653f200f220920489ca2b5937696c31836040516110a391906119d2565b60405180910390a3505050565b6110bb848484610c24565b6110c7848484846112fb565b611106576040517f08c379a00000000000000000000000000000000000000000000000000000000081526004016110fd90612500565b60405180910390fd5b50505050565b606060405180602001604052805f815250905090565b606061112d82610a88565b5f61113661110c565b90505f8151116111545760405180602001604052805f81525061117f565b8061115e8461147d565b60405160200161116f9291906122e9565b6040516020818303038152906040525b915050919050565b6111a0828260405180602001604052805f815250611547565b5050565b6111ad826112af565b6111ec576040517f08c379a00000000000000000000000000000000000000000000000000000000081526004016111e39061258e565b60405180910390fd5b8060065f8481526020019081526020015f20908161120a9190612749565b507ff8e1a15aba9398e019f0b49df1a4fde98ee17ae345cb5f6b5e2c27f5033e8ce78260405161123a9190611c3d565b60405180910390a15050565b5f7f01ffc9a7000000000000000000000000000000000000000000000000000000007bffffffffffffffffffffffffffffffffffffffffffffffffffffffff1916827bffffffffffffffffffffffffffffffffffffffffffffffffffffffff1916149050919050565b5f8073ffffffffffffffffffffffffffffffffffffffff166112d083610f10565b73ffffffffffffffffffffffffffffffffffffffff1614159050919050565b50505050565b50505050565b5f61131b8473ffffffffffffffffffffffffffffffffffffffff166115a1565b15611470578373ffffffffffffffffffffffffffffffffffffffff1663150b7a02611344610ad3565b8786866040518563ffffffff1660e01b8152600401611366949392919061286a565b6020604051808303815f875af19250505080156113a157506040513d601f19601f8201168201806040525081019061139e91906128c8565b60015b611420573d805f81146113cf576040519150601f19603f3d011682016040523d82523d5f602084013e6113d4565b606091505b505f815103611418576040517f08c379a000000000000000000000000000000000000000000000000000000000815260040161140f90612500565b60405180910390fd5b805181602001fd5b63150b7a0260e01b7bffffffffffffffffffffffffffffffffffffffffffffffffffffffff1916817bffffffffffffffffffffffffffffffffffffffffffffffffffffffff191614915050611475565b600190505b949350505050565b60605f600161148b846115c3565b0190505f8167ffffffffffffffff8111156114a9576114a8611cc6565b5b6040519080825280601f01601f1916602001820160405280156114db5781602001600182028036833780820191505090505b5090505f82602001820190505b60011561153c578080600190039150507f3031323334353637383961626364656600000000000000000000000000000000600a86061a8153600a8581611531576115306128f3565b5b0494505f85036114e8575b819350505050919050565b6115518383611714565b61155d5f8484846112fb565b61159c576040517f08c379a000000000000000000000000000000000000000000000000000000000815260040161159390612500565b60405180910390fd5b505050565b5f808273ffffffffffffffffffffffffffffffffffffffff163b119050919050565b5f805f90507a184f03e93ff9f4daa797ed6e38ed64bf6a1f010000000000000000831061161f577a184f03e93ff9f4daa797ed6e38ed64bf6a1f0100000000000000008381611615576116146128f3565b5b0492506040810190505b6d04ee2d6d415b85acef8100000000831061165c576d04ee2d6d415b85acef81000000008381611652576116516128f3565b5b0492506020810190505b662386f26fc10000831061168b57662386f26fc100008381611681576116806128f3565b5b0492506010810190505b6305f5e10083106116b4576305f5e10083816116aa576116a96128f3565b5b0492506008810190505b61271083106116d95761271083816116cf576116ce6128f3565b5b0492506004810190505b606483106116fc57606483816116f2576116f16128f3565b5b0492506002810190505b600a831061170b576001810190505b80915050919050565b5f73ffffffffffffffffffffffffffffffffffffffff168273ffffffffffffffffffffffffffffffffffffffff1603611782576040517f08c379a00000000000000000000000000000000000000000000000000000000081526004016117799061296a565b60405180910390fd5b61178b816112af565b156117cb576040517f08c379a00000000000000000000000000000000000000000000000000000000081526004016117c2906129d2565b60405180910390fd5b6117d85f838360016112ef565b6117e1816112af565b15611821576040517f08c379a0000000000000000000000000000000000000000000000000000000008152600401611818906129d2565b60405180910390fd5b600160035f8473ffffffffffffffffffffffffffffffffffffffff1673ffffffffffffffffffffffffffffffffffffffff1681526020019081526020015f205f82825401925050819055508160025f8381526020019081526020015f205f6101000a81548173ffffffffffffffffffffffffffffffffffffffff021916908373ffffffffffffffffffffffffffffffffffffffff160217905550808273ffffffffffffffffffffffffffffffffffffffff165f73ffffffffffffffffffffffffffffffffffffffff167fddf252ad1be2c89b69c2b068fc378daa952ba7f163c4a11628f55a4df523b3ef60405160405180910390a46119235f838360016112f5565b5050565b5f604051905090565b5f80fd5b5f80fd5b5f7fffffffff0000000000000000000000000000000000000000000000000000000082169050919050565b61196c81611938565b8114611976575f80fd5b50565b5f8135905061198781611963565b92915050565b5f602082840312156119a2576119a1611930565b5b5f6119af84828501611979565b91505092915050565b5f8115159050919050565b6119cc816119b8565b82525050565b5f6020820190506119e55f8301846119c3565b92915050565b5f81519050919050565b5f82825260208201905092915050565b5f5b83811015611a22578082015181840152602081019050611a07565b5f8484015250505050565b5f601f19601f8301169050919050565b5f611a47826119eb565b611a5181856119f5565b9350611a61818560208601611a05565b611a6a81611a2d565b840191505092915050565b5f6020820190508181035f830152611a8d8184611a3d565b905092915050565b5f819050919050565b611aa781611a95565b8114611ab1575f80fd5b50565b5f81359050611ac281611a9e565b92915050565b5f60208284031215611add57611adc611930565b5b5f611aea84828501611ab4565b91505092915050565b5f73ffffffffffffffffffffffffffffffffffffffff82169050919050565b5f611b1c82611af3565b9050919050565b611b2c81611b12565b82525050565b5f602082019050611b455f830184611b23565b92915050565b611b5481611b12565b8114611b5e575f80fd5b50565b5f81359050611b6f81611b4b565b92915050565b5f8060408385031215611b8b57611b8a611930565b5b5f611b9885828601611b61565b9250506020611ba985828601611ab4565b9150509250929050565b5f805f60608486031215611bca57611bc9611930565b5b5f611bd786828701611b61565b9350506020611be886828701611b61565b9250506040611bf986828701611ab4565b9150509250925092565b5f60208284031215611c1857611c17611930565b5b5f611c2584828501611b61565b91505092915050565b611c3781611a95565b82525050565b5f602082019050611c505f830184611c2e565b92915050565b611c5f816119b8565b8114611c69575f80fd5b50565b5f81359050611c7a81611c56565b92915050565b5f8060408385031215611c9657611c95611930565b5b5f611ca385828601611b61565b9250506020611cb485828601611c6c565b9150509250929050565b5f80fd5b5f80fd5b7f4e487b71000000000000000000000000000000000000000000000000000000005f52604160045260245ffd5b611cfc82611a2d565b810181811067ffffffffffffffff82111715611d1b57611d1a611cc6565b5b80604052505050565b5f611d2d611927565b9050611d398282611cf3565b919050565b5f67ffffffffffffffff821115611d5857611d57611cc6565b5b611d6182611a2d565b9050602081019050919050565b828183375f83830152505050565b5f611d8e611d8984611d3e565b611d24565b905082815260208101848484011115611daa57611da9611cc2565b5b611db5848285611d6e565b509392505050565b5f82601f830112611dd157611dd0611cbe565b5b8135611de1848260208601611d7c565b91505092915050565b5f805f8060808587031215611e0257611e01611930565b5b5f611e0f87828801611b61565b9450506020611e2087828801611b61565b9350506040611e3187828801611ab4565b925050606085013567ffffffffffffffff811115611e5257611e51611934565b5b611e5e87828801611dbd565b91505092959194509250565b5f67ffffffffffffffff821115611e8457611e83611cc6565b5b611e8d82611a2d565b9050602081019050919050565b5f611eac611ea784611e6a565b611d24565b905082815260208101848484011115611ec857611ec7611cc2565b5b611ed3848285611d6e565b509392505050565b5f82601f830112611eef57611eee611cbe565b5b8135611eff848260208601611e9a565b91505092915050565b5f805f60608486031215611f1f57611f1e611930565b5b5f611f2c86828701611b61565b9350506020611f3d86828701611ab4565b925050604084013567ffffffffffffffff811115611f5e57611f5d611934565b5b611f6a86828701611edb565b9150509250925092565b5f8060408385031215611f8a57611f89611930565b5b5f611f9785828601611b61565b9250506020611fa885828601611b61565b9150509250929050565b7f4e487b71000000000000000000000000000000000000000000000000000000005f52602260045260245ffd5b5f6002820490506001821680611ff657607f821691505b60208210810361200957612008611fb2565b5b50919050565b7f4552433732313a20617070726f76616c20746f2063757272656e74206f776e655f8201527f7200000000000000000000000000000000000000000000000000000000000000602082015250565b5f6120696021836119f5565b91506120748261200f565b604082019050919050565b5f6020820190508181035f8301526120968161205d565b9050919050565b7f4552433732313a20617070726f76652063616c6c6572206973206e6f7420746f5f8201527f6b656e206f776e6572206f7220617070726f76656420666f7220616c6c000000602082015250565b5f6120f7603d836119f5565b91506121028261209d565b604082019050919050565b5f6020820190508181035f830152612124816120eb565b9050919050565b7f4552433732313a2063616c6c6572206973206e6f7420746f6b656e206f776e655f8201527f72206f7220617070726f76656400000000000000000000000000000000000000602082015250565b5f612185602d836119f5565b91506121908261212b565b604082019050919050565b5f6020820190508181035f8301526121b281612179565b9050919050565b7f4552433732313a20696e76616c696420746f6b656e20494400000000000000005f82015250565b5f6121ed6018836119f5565b91506121f8826121b9565b602082019050919050565b5f6020820190508181035f83015261221a816121e1565b9050919050565b7f4552433732313a2061646472657373207a65726f206973206e6f7420612076615f8201527f6c6964206f776e65720000000000000000000000000000000000000000000000602082015250565b5f61227b6029836119f5565b915061228682612221565b604082019050919050565b5f6020820190508181035f8301526122a88161226f565b9050919050565b5f81905092915050565b5f6122c3826119eb565b6122cd81856122af565b93506122dd818560208601611a05565b80840191505092915050565b5f6122f482856122b9565b915061230082846122b9565b91508190509392505050565b7f4552433732313a207472616e736665722066726f6d20696e636f7272656374205f8201527f6f776e6572000000000000000000000000000000000000000000000000000000602082015250565b5f6123666025836119f5565b91506123718261230c565b604082019050919050565b5f6020820190508181035f8301526123938161235a565b9050919050565b7f4552433732313a207472616e7366657220746f20746865207a65726f206164645f8201527f7265737300000000000000000000000000000000000000000000000000000000602082015250565b5f6123f46024836119f5565b91506123ff8261239a565b604082019050919050565b5f6020820190508181035f830152612421816123e8565b9050919050565b7f4552433732313a20617070726f766520746f2063616c6c6572000000000000005f82015250565b5f61245c6019836119f5565b915061246782612428565b602082019050919050565b5f6020820190508181035f83015261248981612450565b9050919050565b7f4552433732313a207472616e7366657220746f206e6f6e2045524337323152655f8201527f63656976657220696d706c656d656e7465720000000000000000000000000000602082015250565b5f6124ea6032836119f5565b91506124f582612490565b604082019050919050565b5f6020820190508181035f830152612517816124de565b9050919050565b7f45524337323155524953746f726167653a2055524920736574206f66206e6f6e5f8201527f6578697374656e7420746f6b656e000000000000000000000000000000000000602082015250565b5f612578602e836119f5565b91506125838261251e565b604082019050919050565b5f6020820190508181035f8301526125a58161256c565b9050919050565b5f819050815f5260205f209050919050565b5f6020601f8301049050919050565b5f82821b905092915050565b5f600883026126087fffffffffffffffffffffffffffffffffffffffffffffffffffffffffffffffff826125cd565b61261286836125cd565b95508019841693508086168417925050509392505050565b5f819050919050565b5f61264d61264861264384611a95565b61262a565b611a95565b9050919050565b5f819050919050565b61266683612633565b61267a61267282612654565b8484546125d9565b825550505050565b5f90565b61268e612682565b61269981848461265d565b505050565b5b818110156126bc576126b15f82612686565b60018101905061269f565b5050565b601f821115612701576126d2816125ac565b6126db846125be565b810160208510156126ea578190505b6126fe6126f6856125be565b83018261269e565b50505b505050565b5f82821c905092915050565b5f6127215f1984600802612706565b1980831691505092915050565b5f6127398383612712565b9150826002028217905092915050565b612752826119eb565b67ffffffffffffffff81111561276b5761276a611cc6565b5b6127758254611fdf565b6127808282856126c0565b5f60209050601f8311600181146127b1575f841561279f578287015190505b6127a9858261272e565b865550612810565b601f1984166127bf866125ac565b5f5b828110156127e6578489015182556001820191506020850194506020810190506127c1565b8683101561280357848901516127ff601f891682612712565b8355505b6001600288020188555050505b505050505050565b5f81519050919050565b5f82825260208201905092915050565b5f61283c82612818565b6128468185612822565b9350612856818560208601611a05565b61285f81611a2d565b840191505092915050565b5f60808201905061287d5f830187611b23565b61288a6020830186611b23565b6128976040830185611c2e565b81810360608301526128a98184612832565b905095945050505050565b5f815190506128c281611963565b92915050565b5f602082840312156128dd576128dc611930565b5b5f6128ea848285016128b4565b91505092915050565b7f4e487b71000000000000000000000000000000000000000000000000000000005f52601260045260245ffd5b7f4552433732313a206d696e7420746f20746865207a65726f20616464726573735f82015250565b5f6129546020836119f5565b915061295f82612920565b602082019050919050565b5f6020820190508181035f83015261298181612948565b9050919050565b7f4552433732313a20746f6b656e20616c7265616479206d696e746564000000005f82015250565b5f6129bc601c836119f5565b91506129c782612988565b602082019050919050565b5f6020820190508181035f8301526129e9816129b0565b905091905056fea26469706673582212207e36a6c85da01a73871222a1b53c6cf256bc8a08014ca0ddb766b78782085ded64736f6c63430008140033",
  "immutableReferences": {},
  "source": "// SPDX-License-Identifier: MIT\r\npragma solidity ^0.8.9;\r\n\r\nimport \"@openzeppelin/contracts/token/ERC721/ERC721.sol\";\r\nimport \"@openzeppelin/contracts/access/Ownable.sol\";\r\nimport \"@openzeppelin/contracts/token/ERC721/extensions/ERC721URIStorage.sol\";\r\n\r\ncontract NFT is ERC721URIStorage  {\r\n    constructor() ERC721(\"NFT\", \"NF\") {}\r\n\r\n    function safeMint(address to, uint256 tokenId, string memory tokenURI) public {\r\n        _safeMint(to, tokenId);\r\n         _setTokenURI(tokenId, tokenURI);\r\n    }\r\n}",
  "sourcePath": "C:\\Stefan\\Serverless-Ethereum\\smart_contracts\\contracts\\NFT.sol",
  "compiler": {
    "name": "solc",
    "version": "0.8.20+commit.a1b79de6.Emscripten.clang"
  },
  "schemaVersion": "3.4.14",
  "updatedAt": "2023-08-03T21:25:15.254Z",
  "networkType": "ethereum",
  "devdoc": {
    "events": {
      "Approval(address,address,uint256)": {
        "details": "Emitted when `owner` enables `approved` to manage the `tokenId` token."
      },
      "ApprovalForAll(address,address,bool)": {
        "details": "Emitted when `owner` enables or disables (`approved`) `operator` to manage all of its assets."
      },
      "BatchMetadataUpdate(uint256,uint256)": {
        "details": "This event emits when the metadata of a range of tokens is changed. So that the third-party platforms such as NFT market could timely update the images and related attributes of the NFTs."
      },
      "MetadataUpdate(uint256)": {
        "details": "This event emits when the metadata of a token is changed. So that the third-party platforms such as NFT market could timely update the images and related attributes of the NFT."
      },
      "Transfer(address,address,uint256)": {
        "details": "Emitted when `tokenId` token is transferred from `from` to `to`."
      }
    },
    "kind": "dev",
    "methods": {
      "approve(address,uint256)": {
        "details": "See {IERC721-approve}."
      },
      "balanceOf(address)": {
        "details": "See {IERC721-balanceOf}."
      },
      "getApproved(uint256)": {
        "details": "See {IERC721-getApproved}."
      },
      "isApprovedForAll(address,address)": {
        "details": "See {IERC721-isApprovedForAll}."
      },
      "name()": {
        "details": "See {IERC721Metadata-name}."
      },
      "ownerOf(uint256)": {
        "details": "See {IERC721-ownerOf}."
      },
      "safeTransferFrom(address,address,uint256)": {
        "details": "See {IERC721-safeTransferFrom}."
      },
      "safeTransferFrom(address,address,uint256,bytes)": {
        "details": "See {IERC721-safeTransferFrom}."
      },
      "setApprovalForAll(address,bool)": {
        "details": "See {IERC721-setApprovalForAll}."
      },
      "supportsInterface(bytes4)": {
        "details": "See {IERC165-supportsInterface}"
      },
      "symbol()": {
        "details": "See {IERC721Metadata-symbol}."
      },
      "tokenURI(uint256)": {
        "details": "See {IERC721Metadata-tokenURI}."
      },
      "transferFrom(address,address,uint256)": {
        "details": "See {IERC721-transferFrom}."
      }
    },
    "version": 1
  },
  "userdoc": {
    "kind": "user",
    "methods": {},
    "version": 1
  }
}