{
  "contractName": "Token",
  "abi": [
    {
      "inputs": [],
      "stateMutability": "nonpayable",
      "type": "constructor"
    },
    {
      "anonymous": false,
      "inputs": [
        {
          "indexed": true,
          "internalType": "address",
          "name": "owner",
          "type": "address"
        },
        {
          "indexed": true,
          "internalType": "address",
          "name": "spender",
          "type": "address"
        },
        {
          "indexed": false,
          "internalType": "uint256",
          "name": "value",
          "type": "uint256"
        }
      ],
      "name": "Approval",
      "type": "event"
    },
    {
      "anonymous": false,
      "inputs": [
        {
          "indexed": true,
          "internalType": "address",
          "name": "receiver",
          "type": "address"
        },
        {
          "indexed": true,
          "internalType": "address",
          "name": "buyer",
          "type": "address"
        }
      ],
      "name": "CoursePurchased",
      "type": "event"
    },
    {
      "anonymous": false,
      "inputs": [
        {
          "indexed": true,
          "internalType": "address",
          "name": "from",
          "type": "address"
        },
        {
          "indexed": true,
          "internalType": "address",
          "name": "to",
          "type": "address"
        },
        {
          "indexed": false,
          "internalType": "uint256",
          "name": "value",
          "type": "uint256"
        }
      ],
      "name": "Transfer",
      "type": "event"
    },
    {
      "inputs": [
        {
          "internalType": "address",
          "name": "owner",
          "type": "address"
        },
        {
          "internalType": "address",
          "name": "spender",
          "type": "address"
        }
      ],
      "name": "allowance",
      "outputs": [
        {
          "internalType": "uint256",
          "name": "",
          "type": "uint256"
        }
      ],
      "stateMutability": "view",
      "type": "function"
    },
    {
      "inputs": [
        {
          "internalType": "address",
          "name": "spender",
          "type": "address"
        },
        {
          "internalType": "uint256",
          "name": "amount",
          "type": "uint256"
        }
      ],
      "name": "approve",
      "outputs": [
        {
          "internalType": "bool",
          "name": "",
          "type": "bool"
        }
      ],
      "stateMutability": "nonpayable",
      "type": "function"
    },
    {
      "inputs": [
        {
          "internalType": "address",
          "name": "account",
          "type": "address"
        }
      ],
      "name": "balanceOf",
      "outputs": [
        {
          "internalType": "uint256",
          "name": "",
          "type": "uint256"
        }
      ],
      "stateMutability": "view",
      "type": "function"
    },
    {
      "inputs": [],
      "name": "decimals",
      "outputs": [
        {
          "internalType": "uint8",
          "name": "",
          "type": "uint8"
        }
      ],
      "stateMutability": "view",
      "type": "function"
    },
    {
      "inputs": [
        {
          "internalType": "address",
          "name": "spender",
          "type": "address"
        },
        {
          "internalType": "uint256",
          "name": "subtractedValue",
          "type": "uint256"
        }
      ],
      "name": "decreaseAllowance",
      "outputs": [
        {
          "internalType": "bool",
          "name": "",
          "type": "bool"
        }
      ],
      "stateMutability": "nonpayable",
      "type": "function"
    },
    {
      "inputs": [
        {
          "internalType": "address",
          "name": "spender",
          "type": "address"
        },
        {
          "internalType": "uint256",
          "name": "addedValue",
          "type": "uint256"
        }
      ],
      "name": "increaseAllowance",
      "outputs": [
        {
          "internalType": "bool",
          "name": "",
          "type": "bool"
        }
      ],
      "stateMutability": "nonpayable",
      "type": "function"
    },
    {
      "inputs": [],
      "name": "name",
      "outputs": [
        {
          "internalType": "string",
          "name": "",
          "type": "string"
        }
      ],
      "stateMutability": "view",
      "type": "function"
    },
    {
      "inputs": [],
      "name": "symbol",
      "outputs": [
        {
          "internalType": "string",
          "name": "",
          "type": "string"
        }
      ],
      "stateMutability": "view",
      "type": "function"
    },
    {
      "inputs": [],
      "name": "totalSupply",
      "outputs": [
        {
          "internalType": "uint256",
          "name": "",
          "type": "uint256"
        }
      ],
      "stateMutability": "view",
      "type": "function"
    },
    {
      "inputs": [
        {
          "internalType": "address",
          "name": "to",
          "type": "address"
        },
        {
          "internalType": "uint256",
          "name": "amount",
          "type": "uint256"
        }
      ],
      "name": "transfer",
      "outputs": [
        {
          "internalType": "bool",
          "name": "",
          "type": "bool"
        }
      ],
      "stateMutability": "nonpayable",
      "type": "function"
    },
    {
      "inputs": [
        {
          "internalType": "address",
          "name": "from",
          "type": "address"
        },
        {
          "internalType": "address",
          "name": "to",
          "type": "address"
        },
        {
          "internalType": "uint256",
          "name": "amount",
          "type": "uint256"
        }
      ],
      "name": "transferFrom",
      "outputs": [
        {
          "internalType": "bool",
          "name": "",
          "type": "bool"
        }
      ],
      "stateMutability": "nonpayable",
      "type": "function"
    },
    {
      "inputs": [
        {
          "internalType": "address",
          "name": "to",
          "type": "address"
        },
        {
          "internalType": "uint256",
          "name": "amount",
          "type": "uint256"
        }
      ],
      "name": "rewardUser",
      "outputs": [],
      "stateMutability": "nonpayable",
      "type": "function"
    },
    {
      "inputs": [
        {
          "internalType": "address",
          "name": "owner",
          "type": "address"
        },
        {
          "internalType": "uint256",
          "name": "courseId",
          "type": "uint256"
        },
        {
          "internalType": "uint256",
          "name": "amount",
          "type": "uint256"
        },
        {
          "internalType": "address",
          "name": "courseManagerAddress",
          "type": "address"
        }
      ],
      "name": "buyCourse",
      "outputs": [],
      "stateMutability": "nonpayable",
      "type": "function"
    }
  ],
  "bytecode": "0x608060405266038d7ea4c680006005553480156200001c57600080fd5b506040518060400160405280600581526020017f546f6b656e0000000000000000000000000000000000000000000000000000008152506040518060400160405280600381526020017f544b4e00000000000000000000000000000000000000000000000000000000008152508160039080519060200190620000a1929190620000c3565b508060049080519060200190620000ba929190620000c3565b505050620001d8565b828054620000d190620001a2565b90600052602060002090601f016020900481019282620000f5576000855562000141565b82601f106200011057805160ff191683800117855562000141565b8280016001018555821562000141579182015b828111156200014057825182559160200191906001019062000123565b5b50905062000150919062000154565b5090565b5b808211156200016f57600081600090555060010162000155565b5090565b7f4e487b7100000000000000000000000000000000000000000000000000000000600052602260045260246000fd5b60006002820490506001821680620001bb57607f821691505b60208210811415620001d257620001d162000173565b5b50919050565b611eaf80620001e86000396000f3fe608060405234801561001057600080fd5b50600436106100cf5760003560e01c8063395093511161008c578063a457c2d711610066578063a457c2d714610228578063a9059cbb14610258578063dd62ed3e14610288578063e4e103dc146102b8576100cf565b806339509351146101aa57806370a08231146101da57806395d89b411461020a576100cf565b806306fdde03146100d4578063095ea7b3146100f257806318160ddd1461012257806322f667ae1461014057806323b872dd1461015c578063313ce5671461018c575b600080fd5b6100dc6102d4565b6040516100e9919061118b565b60405180910390f35b61010c60048036038101906101079190611246565b610366565b60405161011991906112a1565b60405180910390f35b61012a610389565b60405161013791906112cb565b60405180910390f35b61015a600480360381019061015591906112e6565b610393565b005b6101766004803603810190610171919061134d565b610656565b60405161018391906112a1565b60405180910390f35b610194610685565b6040516101a191906113bc565b60405180910390f35b6101c460048036038101906101bf9190611246565b61068e565b6040516101d191906112a1565b60405180910390f35b6101f460048036038101906101ef91906113d7565b6106c5565b60405161020191906112cb565b60405180910390f35b61021261070d565b60405161021f919061118b565b60405180910390f35b610242600480360381019061023d9190611246565b61079f565b60405161024f91906112a1565b60405180910390f35b610272600480360381019061026d9190611246565b610816565b60405161027f91906112a1565b60405180910390f35b6102a2600480360381019061029d9190611404565b610839565b6040516102af91906112cb565b60405180910390f35b6102d260048036038101906102cd9190611246565b6108c0565b005b6060600380546102e390611473565b80601f016020809104026020016040519081016040528092919081815260200182805461030f90611473565b801561035c5780601f106103315761010080835404028352916020019161035c565b820191906000526020600020905b81548152906001019060200180831161033f57829003601f168201915b5050505050905090565b6000806103716108ec565b905061037e8185856108f4565b600191505092915050565b6000600254905090565b60008173ffffffffffffffffffffffffffffffffffffffff1663264a1d9386866040518363ffffffff1660e01b81526004016103d09291906114b4565b60206040518083038186803b1580156103e857600080fd5b505afa1580156103fc573d6000803e3d6000fd5b505050506040513d601f19601f8201168201806040525081019061042091906114f2565b905060008173ffffffffffffffffffffffffffffffffffffffff1663c43a4b216040518163ffffffff1660e01b815260040160206040518083038186803b15801561046a57600080fd5b505afa15801561047e573d6000803e3d6000fd5b505050506040513d601f19601f820116820180604052508101906104a29190611534565b90506000846005546104b49190611590565b9050818110156104f9576040517f08c379a00000000000000000000000000000000000000000000000000000000081526004016104f090611636565b60405180910390fd5b6000600554836105099190611685565b9050610513610685565b600a61051f91906117e9565b8161052a9190611590565b61053a6105356108ec565b6106c5565b101561057b576040517f08c379a000000000000000000000000000000000000000000000000000000000815260040161057290611880565b60405180910390fd5b6105ab886105876108ec565b61058f610685565b600a61059b91906117e9565b846105a69190611590565b610abf565b6105da6105b66108ec565b6105be610685565b600a6105ca91906117e9565b836105d59190611590565b610b4b565b8373ffffffffffffffffffffffffffffffffffffffff16639658310c6105fe6108ec565b6040518263ffffffff1660e01b815260040161061a91906118a0565b600060405180830381600087803b15801561063457600080fd5b505af1158015610648573d6000803e3d6000fd5b505050505050505050505050565b6000806106616108ec565b905061066e858285610abf565b610679858585610d19565b60019150509392505050565b60006012905090565b6000806106996108ec565b90506106ba8185856106ab8589610839565b6106b591906118bb565b6108f4565b600191505092915050565b60008060008373ffffffffffffffffffffffffffffffffffffffff1673ffffffffffffffffffffffffffffffffffffffff168152602001908152602001600020549050919050565b60606004805461071c90611473565b80601f016020809104026020016040519081016040528092919081815260200182805461074890611473565b80156107955780601f1061076a57610100808354040283529160200191610795565b820191906000526020600020905b81548152906001019060200180831161077857829003601f168201915b5050505050905090565b6000806107aa6108ec565b905060006107b88286610839565b9050838110156107fd576040517f08c379a00000000000000000000000000000000000000000000000000000000081526004016107f490611983565b60405180910390fd5b61080a82868684036108f4565b60019250505092915050565b6000806108216108ec565b905061082e818585610d19565b600191505092915050565b6000600160008473ffffffffffffffffffffffffffffffffffffffff1673ffffffffffffffffffffffffffffffffffffffff16815260200190815260200160002060008373ffffffffffffffffffffffffffffffffffffffff1673ffffffffffffffffffffffffffffffffffffffff16815260200190815260200160002054905092915050565b6108e8826108cc610685565b600a6108d891906117e9565b836108e39190611590565b610f91565b5050565b600033905090565b600073ffffffffffffffffffffffffffffffffffffffff168373ffffffffffffffffffffffffffffffffffffffff161415610964576040517f08c379a000000000000000000000000000000000000000000000000000000000815260040161095b90611a15565b60405180910390fd5b600073ffffffffffffffffffffffffffffffffffffffff168273ffffffffffffffffffffffffffffffffffffffff1614156109d4576040517f08c379a00000000000000000000000000000000000000000000000000000000081526004016109cb90611aa7565b60405180910390fd5b80600160008573ffffffffffffffffffffffffffffffffffffffff1673ffffffffffffffffffffffffffffffffffffffff16815260200190815260200160002060008473ffffffffffffffffffffffffffffffffffffffff1673ffffffffffffffffffffffffffffffffffffffff168152602001908152602001600020819055508173ffffffffffffffffffffffffffffffffffffffff168373ffffffffffffffffffffffffffffffffffffffff167f8c5be1e5ebec7d5bd14f71427d1e84f3dd0314c0f7b2291e5b200ac8c7c3b92583604051610ab291906112cb565b60405180910390a3505050565b6000610acb8484610839565b90507fffffffffffffffffffffffffffffffffffffffffffffffffffffffffffffffff8114610b455781811015610b37576040517f08c379a0000000000000000000000000000000000000000000000000000000008152600401610b2e90611b13565b60405180910390fd5b610b4484848484036108f4565b5b50505050565b600073ffffffffffffffffffffffffffffffffffffffff168273ffffffffffffffffffffffffffffffffffffffff161415610bbb576040517f08c379a0000000000000000000000000000000000000000000000000000000008152600401610bb290611ba5565b60405180910390fd5b610bc7826000836110e8565b60008060008473ffffffffffffffffffffffffffffffffffffffff1673ffffffffffffffffffffffffffffffffffffffff16815260200190815260200160002054905081811015610c4d576040517f08c379a0000000000000000000000000000000000000000000000000000000008152600401610c4490611c37565b60405180910390fd5b8181036000808573ffffffffffffffffffffffffffffffffffffffff1673ffffffffffffffffffffffffffffffffffffffff1681526020019081526020016000208190555081600260008282540392505081905550600073ffffffffffffffffffffffffffffffffffffffff168373ffffffffffffffffffffffffffffffffffffffff167fddf252ad1be2c89b69c2b068fc378daa952ba7f163c4a11628f55a4df523b3ef84604051610d0091906112cb565b60405180910390a3610d14836000846110ed565b505050565b600073ffffffffffffffffffffffffffffffffffffffff168373ffffffffffffffffffffffffffffffffffffffff161415610d89576040517f08c379a0000000000000000000000000000000000000000000000000000000008152600401610d8090611cc9565b60405180910390fd5b600073ffffffffffffffffffffffffffffffffffffffff168273ffffffffffffffffffffffffffffffffffffffff161415610df9576040517f08c379a0000000000000000000000000000000000000000000000000000000008152600401610df090611d5b565b60405180910390fd5b610e048383836110e8565b60008060008573ffffffffffffffffffffffffffffffffffffffff1673ffffffffffffffffffffffffffffffffffffffff16815260200190815260200160002054905081811015610e8a576040517f08c379a0000000000000000000000000000000000000000000000000000000008152600401610e8190611ded565b60405180910390fd5b8181036000808673ffffffffffffffffffffffffffffffffffffffff1673ffffffffffffffffffffffffffffffffffffffff16815260200190815260200160002081905550816000808573ffffffffffffffffffffffffffffffffffffffff1673ffffffffffffffffffffffffffffffffffffffff168152602001908152602001600020600082825401925050819055508273ffffffffffffffffffffffffffffffffffffffff168473ffffffffffffffffffffffffffffffffffffffff167fddf252ad1be2c89b69c2b068fc378daa952ba7f163c4a11628f55a4df523b3ef84604051610f7891906112cb565b60405180910390a3610f8b8484846110ed565b50505050565b600073ffffffffffffffffffffffffffffffffffffffff168273ffffffffffffffffffffffffffffffffffffffff161415611001576040517f08c379a0000000000000000000000000000000000000000000000000000000008152600401610ff890611e59565b60405180910390fd5b61100d600083836110e8565b806002600082825461101f91906118bb565b92505081905550806000808473ffffffffffffffffffffffffffffffffffffffff1673ffffffffffffffffffffffffffffffffffffffff168152602001908152602001600020600082825401925050819055508173ffffffffffffffffffffffffffffffffffffffff16600073ffffffffffffffffffffffffffffffffffffffff167fddf252ad1be2c89b69c2b068fc378daa952ba7f163c4a11628f55a4df523b3ef836040516110d091906112cb565b60405180910390a36110e4600083836110ed565b5050565b505050565b505050565b600081519050919050565b600082825260208201905092915050565b60005b8381101561112c578082015181840152602081019050611111565b8381111561113b576000848401525b50505050565b6000601f19601f8301169050919050565b600061115d826110f2565b61116781856110fd565b935061117781856020860161110e565b61118081611141565b840191505092915050565b600060208201905081810360008301526111a58184611152565b905092915050565b600080fd5b600073ffffffffffffffffffffffffffffffffffffffff82169050919050565b60006111dd826111b2565b9050919050565b6111ed816111d2565b81146111f857600080fd5b50565b60008135905061120a816111e4565b92915050565b6000819050919050565b61122381611210565b811461122e57600080fd5b50565b6000813590506112408161121a565b92915050565b6000806040838503121561125d5761125c6111ad565b5b600061126b858286016111fb565b925050602061127c85828601611231565b9150509250929050565b60008115159050919050565b61129b81611286565b82525050565b60006020820190506112b66000830184611292565b92915050565b6112c581611210565b82525050565b60006020820190506112e060008301846112bc565b92915050565b60008060008060808587031215611300576112ff6111ad565b5b600061130e878288016111fb565b945050602061131f87828801611231565b935050604061133087828801611231565b9250506060611341878288016111fb565b91505092959194509250565b600080600060608486031215611366576113656111ad565b5b6000611374868287016111fb565b9350506020611385868287016111fb565b925050604061139686828701611231565b9150509250925092565b600060ff82169050919050565b6113b6816113a0565b82525050565b60006020820190506113d160008301846113ad565b92915050565b6000602082840312156113ed576113ec6111ad565b5b60006113fb848285016111fb565b91505092915050565b6000806040838503121561141b5761141a6111ad565b5b6000611429858286016111fb565b925050602061143a858286016111fb565b9150509250929050565b7f4e487b7100000000000000000000000000000000000000000000000000000000600052602260045260246000fd5b6000600282049050600182168061148b57607f821691505b6020821081141561149f5761149e611444565b5b50919050565b6114ae816111d2565b82525050565b60006040820190506114c960008301856114a5565b6114d660208301846112bc565b9392505050565b6000815190506114ec816111e4565b92915050565b600060208284031215611508576115076111ad565b5b6000611516848285016114dd565b91505092915050565b60008151905061152e8161121a565b92915050565b60006020828403121561154a576115496111ad565b5b60006115588482850161151f565b91505092915050565b7f4e487b7100000000000000000000000000000000000000000000000000000000600052601160045260246000fd5b600061159b82611210565b91506115a683611210565b9250817fffffffffffffffffffffffffffffffffffffffffffffffffffffffffffffffff04831182151516156115df576115de611561565b5b828202905092915050565b7f4e6f7420656e6f75676820746f6b656e73000000000000000000000000000000600082015250565b60006116206011836110fd565b915061162b826115ea565b602082019050919050565b6000602082019050818103600083015261164f81611613565b9050919050565b7f4e487b7100000000000000000000000000000000000000000000000000000000600052601260045260246000fd5b600061169082611210565b915061169b83611210565b9250826116ab576116aa611656565b5b828204905092915050565b60008160011c9050919050565b6000808291508390505b600185111561170d578086048111156116e9576116e8611561565b5b60018516156116f85780820291505b8081029050611706856116b6565b94506116cd565b94509492505050565b60008261172657600190506117e2565b8161173457600090506117e2565b816001811461174a576002811461175457611783565b60019150506117e2565b60ff84111561176657611765611561565b5b8360020a91508482111561177d5761177c611561565b5b506117e2565b5060208310610133831016604e8410600b84101617156117b85782820a9050838111156117b3576117b2611561565b5b6117e2565b6117c584848460016116c3565b925090508184048111156117dc576117db611561565b5b81810290505b9392505050565b60006117f482611210565b91506117ff836113a0565b925061182c7fffffffffffffffffffffffffffffffffffffffffffffffffffffffffffffffff8484611716565b905092915050565b7f496e73756666696369656e742062616c616e6365000000000000000000000000600082015250565b600061186a6014836110fd565b915061187582611834565b602082019050919050565b600060208201905081810360008301526118998161185d565b9050919050565b60006020820190506118b560008301846114a5565b92915050565b60006118c682611210565b91506118d183611210565b9250827fffffffffffffffffffffffffffffffffffffffffffffffffffffffffffffffff0382111561190657611905611561565b5b828201905092915050565b7f45524332303a2064656372656173656420616c6c6f77616e63652062656c6f7760008201527f207a65726f000000000000000000000000000000000000000000000000000000602082015250565b600061196d6025836110fd565b915061197882611911565b604082019050919050565b6000602082019050818103600083015261199c81611960565b9050919050565b7f45524332303a20617070726f76652066726f6d20746865207a65726f2061646460008201527f7265737300000000000000000000000000000000000000000000000000000000602082015250565b60006119ff6024836110fd565b9150611a0a826119a3565b604082019050919050565b60006020820190508181036000830152611a2e816119f2565b9050919050565b7f45524332303a20617070726f766520746f20746865207a65726f20616464726560008201527f7373000000000000000000000000000000000000000000000000000000000000602082015250565b6000611a916022836110fd565b9150611a9c82611a35565b604082019050919050565b60006020820190508181036000830152611ac081611a84565b9050919050565b7f45524332303a20696e73756666696369656e7420616c6c6f77616e6365000000600082015250565b6000611afd601d836110fd565b9150611b0882611ac7565b602082019050919050565b60006020820190508181036000830152611b2c81611af0565b9050919050565b7f45524332303a206275726e2066726f6d20746865207a65726f2061646472657360008201527f7300000000000000000000000000000000000000000000000000000000000000602082015250565b6000611b8f6021836110fd565b9150611b9a82611b33565b604082019050919050565b60006020820190508181036000830152611bbe81611b82565b9050919050565b7f45524332303a206275726e20616d6f756e7420657863656564732062616c616e60008201527f6365000000000000000000000000000000000000000000000000000000000000602082015250565b6000611c216022836110fd565b9150611c2c82611bc5565b604082019050919050565b60006020820190508181036000830152611c5081611c14565b9050919050565b7f45524332303a207472616e736665722066726f6d20746865207a65726f20616460008201527f6472657373000000000000000000000000000000000000000000000000000000602082015250565b6000611cb36025836110fd565b9150611cbe82611c57565b604082019050919050565b60006020820190508181036000830152611ce281611ca6565b9050919050565b7f45524332303a207472616e7366657220746f20746865207a65726f206164647260008201527f6573730000000000000000000000000000000000000000000000000000000000602082015250565b6000611d456023836110fd565b9150611d5082611ce9565b604082019050919050565b60006020820190508181036000830152611d7481611d38565b9050919050565b7f45524332303a207472616e7366657220616d6f756e742065786365656473206260008201527f616c616e63650000000000000000000000000000000000000000000000000000602082015250565b6000611dd76026836110fd565b9150611de282611d7b565b604082019050919050565b60006020820190508181036000830152611e0681611dca565b9050919050565b7f45524332303a206d696e7420746f20746865207a65726f206164647265737300600082015250565b6000611e43601f836110fd565b9150611e4e82611e0d565b602082019050919050565b60006020820190508181036000830152611e7281611e36565b905091905056fea26469706673582212202b83fc373733ed85a94ea80f9c8904b53a4250fa46fd3fb23b99050954d2f07364736f6c63430008090033",
  "immutableReferences": {},
  "source": "// SPDX-License-Identifier: MIT\r\npragma solidity ^0.8.9;\r\n\r\nimport \"@openzeppelin/contracts/token/ERC20/ERC20.sol\";\r\nimport \"@openzeppelin/contracts/access/Ownable.sol\";\r\n\r\ninterface ICourse {\r\n    function getCoursePriceInWei() external view returns (uint);\r\n    function payInTokens(address) external  payable;\r\n}\r\n\r\ninterface ICourseManager {\r\n    function getCourse(address owner, uint courseId) external  view returns (address);\r\n}\r\n\r\ncontract Token is ERC20 {\r\n\r\n    uint tokenPriceInWeiPerUnit  = 0.001 ether;\r\n\r\n    constructor() ERC20(\"Token\", \"TKN\") {\r\n    }\r\n\r\n    event CoursePurchased(address indexed receiver,address indexed buyer);\r\n\r\n    function rewardUser(address to, uint256 amount) public {\r\n        _mint(to, amount* 10 ** decimals());\r\n    }\r\n\r\n    function buyCourse(address owner,uint courseId,uint amount,address courseManagerAddress) public{\r\n        address course = ICourseManager(courseManagerAddress).getCourse(owner,courseId);\r\n        uint courserPriceInWei = ICourse(course).getCoursePriceInWei();\r\n\r\n        uint ammountInWei = tokenPriceInWeiPerUnit * amount;\r\n        require(ammountInWei >=courserPriceInWei, \"Not enough tokens\");\r\n\r\n        uint amountToReduce = courserPriceInWei / tokenPriceInWeiPerUnit;\r\n        require(balanceOf(_msgSender()) >= amountToReduce * 10 ** decimals(), \"Insufficient balance\");\r\n\r\n        _spendAllowance(owner, _msgSender(), amountToReduce* 10 ** decimals());\r\n        _burn(_msgSender(), amountToReduce* 10 ** decimals());\r\n\r\n        ICourse(course).payInTokens(_msgSender());\r\n    }\r\n}\r\n",
  "sourcePath": "C:\\Stefan\\Serverless-Ethereum\\smart_contracts\\contracts\\Token.sol",
  "compiler": {
    "name": "solc",
    "version": "0.8.9+commit.e5eed63a.Emscripten.clang"
  },
  "schemaVersion": "3.4.14",
  "updatedAt": "2023-10-30T11:49:29.200Z",
  "devdoc": {
    "kind": "dev",
    "methods": {
      "allowance(address,address)": {
        "details": "See {IERC20-allowance}."
      },
      "approve(address,uint256)": {
        "details": "See {IERC20-approve}. NOTE: If `amount` is the maximum `uint256`, the allowance is not updated on `transferFrom`. This is semantically equivalent to an infinite approval. Requirements: - `spender` cannot be the zero address."
      },
      "balanceOf(address)": {
        "details": "See {IERC20-balanceOf}."
      },
      "decimals()": {
        "details": "Returns the number of decimals used to get its user representation. For example, if `decimals` equals `2`, a balance of `505` tokens should be displayed to a user as `5.05` (`505 / 10 ** 2`). Tokens usually opt for a value of 18, imitating the relationship between Ether and Wei. This is the default value returned by this function, unless it's overridden. NOTE: This information is only used for _display_ purposes: it in no way affects any of the arithmetic of the contract, including {IERC20-balanceOf} and {IERC20-transfer}."
      },
      "decreaseAllowance(address,uint256)": {
        "details": "Atomically decreases the allowance granted to `spender` by the caller. This is an alternative to {approve} that can be used as a mitigation for problems described in {IERC20-approve}. Emits an {Approval} event indicating the updated allowance. Requirements: - `spender` cannot be the zero address. - `spender` must have allowance for the caller of at least `subtractedValue`."
      },
      "increaseAllowance(address,uint256)": {
        "details": "Atomically increases the allowance granted to `spender` by the caller. This is an alternative to {approve} that can be used as a mitigation for problems described in {IERC20-approve}. Emits an {Approval} event indicating the updated allowance. Requirements: - `spender` cannot be the zero address."
      },
      "name()": {
        "details": "Returns the name of the token."
      },
      "symbol()": {
        "details": "Returns the symbol of the token, usually a shorter version of the name."
      },
      "totalSupply()": {
        "details": "See {IERC20-totalSupply}."
      },
      "transfer(address,uint256)": {
        "details": "See {IERC20-transfer}. Requirements: - `to` cannot be the zero address. - the caller must have a balance of at least `amount`."
      },
      "transferFrom(address,address,uint256)": {
        "details": "See {IERC20-transferFrom}. Emits an {Approval} event indicating the updated allowance. This is not required by the EIP. See the note at the beginning of {ERC20}. NOTE: Does not update the allowance if the current allowance is the maximum `uint256`. Requirements: - `from` and `to` cannot be the zero address. - `from` must have a balance of at least `amount`. - the caller must have allowance for ``from``'s tokens of at least `amount`."
      }
    },
    "version": 1
  },
  "userdoc": {
    "kind": "user",
    "methods": {},
    "version": 1
  }
}