{
  "contractName": "Token",
  "abi": [
    {
      "inputs": [],
      "stateMutability": "nonpayable",
      "type": "constructor"
    },
    {
      "anonymous": false,
      "inputs": [
        {
          "indexed": true,
          "internalType": "address",
          "name": "owner",
          "type": "address"
        },
        {
          "indexed": true,
          "internalType": "address",
          "name": "spender",
          "type": "address"
        },
        {
          "indexed": false,
          "internalType": "uint256",
          "name": "value",
          "type": "uint256"
        }
      ],
      "name": "Approval",
      "type": "event"
    },
    {
      "anonymous": false,
      "inputs": [
        {
          "indexed": true,
          "internalType": "address",
          "name": "receiver",
          "type": "address"
        },
        {
          "indexed": true,
          "internalType": "address",
          "name": "buyer",
          "type": "address"
        }
      ],
      "name": "CoursePurchased",
      "type": "event"
    },
    {
      "anonymous": false,
      "inputs": [
        {
          "indexed": true,
          "internalType": "address",
          "name": "from",
          "type": "address"
        },
        {
          "indexed": true,
          "internalType": "address",
          "name": "to",
          "type": "address"
        },
        {
          "indexed": false,
          "internalType": "uint256",
          "name": "value",
          "type": "uint256"
        }
      ],
      "name": "Transfer",
      "type": "event"
    },
    {
      "inputs": [
        {
          "internalType": "address",
          "name": "owner",
          "type": "address"
        },
        {
          "internalType": "address",
          "name": "spender",
          "type": "address"
        }
      ],
      "name": "allowance",
      "outputs": [
        {
          "internalType": "uint256",
          "name": "",
          "type": "uint256"
        }
      ],
      "stateMutability": "view",
      "type": "function"
    },
    {
      "inputs": [
        {
          "internalType": "address",
          "name": "spender",
          "type": "address"
        },
        {
          "internalType": "uint256",
          "name": "amount",
          "type": "uint256"
        }
      ],
      "name": "approve",
      "outputs": [
        {
          "internalType": "bool",
          "name": "",
          "type": "bool"
        }
      ],
      "stateMutability": "nonpayable",
      "type": "function"
    },
    {
      "inputs": [
        {
          "internalType": "address",
          "name": "account",
          "type": "address"
        }
      ],
      "name": "balanceOf",
      "outputs": [
        {
          "internalType": "uint256",
          "name": "",
          "type": "uint256"
        }
      ],
      "stateMutability": "view",
      "type": "function"
    },
    {
      "inputs": [],
      "name": "decimals",
      "outputs": [
        {
          "internalType": "uint8",
          "name": "",
          "type": "uint8"
        }
      ],
      "stateMutability": "view",
      "type": "function"
    },
    {
      "inputs": [
        {
          "internalType": "address",
          "name": "spender",
          "type": "address"
        },
        {
          "internalType": "uint256",
          "name": "subtractedValue",
          "type": "uint256"
        }
      ],
      "name": "decreaseAllowance",
      "outputs": [
        {
          "internalType": "bool",
          "name": "",
          "type": "bool"
        }
      ],
      "stateMutability": "nonpayable",
      "type": "function"
    },
    {
      "inputs": [
        {
          "internalType": "address",
          "name": "spender",
          "type": "address"
        },
        {
          "internalType": "uint256",
          "name": "addedValue",
          "type": "uint256"
        }
      ],
      "name": "increaseAllowance",
      "outputs": [
        {
          "internalType": "bool",
          "name": "",
          "type": "bool"
        }
      ],
      "stateMutability": "nonpayable",
      "type": "function"
    },
    {
      "inputs": [],
      "name": "name",
      "outputs": [
        {
          "internalType": "string",
          "name": "",
          "type": "string"
        }
      ],
      "stateMutability": "view",
      "type": "function"
    },
    {
      "inputs": [],
      "name": "symbol",
      "outputs": [
        {
          "internalType": "string",
          "name": "",
          "type": "string"
        }
      ],
      "stateMutability": "view",
      "type": "function"
    },
    {
      "inputs": [],
      "name": "totalSupply",
      "outputs": [
        {
          "internalType": "uint256",
          "name": "",
          "type": "uint256"
        }
      ],
      "stateMutability": "view",
      "type": "function"
    },
    {
      "inputs": [
        {
          "internalType": "address",
          "name": "to",
          "type": "address"
        },
        {
          "internalType": "uint256",
          "name": "amount",
          "type": "uint256"
        }
      ],
      "name": "transfer",
      "outputs": [
        {
          "internalType": "bool",
          "name": "",
          "type": "bool"
        }
      ],
      "stateMutability": "nonpayable",
      "type": "function"
    },
    {
      "inputs": [
        {
          "internalType": "address",
          "name": "from",
          "type": "address"
        },
        {
          "internalType": "address",
          "name": "to",
          "type": "address"
        },
        {
          "internalType": "uint256",
          "name": "amount",
          "type": "uint256"
        }
      ],
      "name": "transferFrom",
      "outputs": [
        {
          "internalType": "bool",
          "name": "",
          "type": "bool"
        }
      ],
      "stateMutability": "nonpayable",
      "type": "function"
    },
    {
      "inputs": [
        {
          "internalType": "address",
          "name": "to",
          "type": "address"
        },
        {
          "internalType": "uint256",
          "name": "amount",
          "type": "uint256"
        }
      ],
      "name": "rewardUser",
      "outputs": [],
      "stateMutability": "nonpayable",
      "type": "function"
    },
    {
      "inputs": [
        {
          "internalType": "address",
          "name": "owner",
          "type": "address"
        },
        {
          "internalType": "uint256",
          "name": "courseId",
          "type": "uint256"
        },
        {
          "internalType": "uint256",
          "name": "amount",
          "type": "uint256"
        },
        {
          "internalType": "address",
          "name": "courseManagerAddress",
          "type": "address"
        }
      ],
      "name": "buyCourse",
      "outputs": [],
      "stateMutability": "nonpayable",
      "type": "function"
    }
  ],
  "bytecode": "0x608060405266038d7ea4c680006005553480156200001b575f80fd5b506040518060400160405280600581526020017f546f6b656e0000000000000000000000000000000000000000000000000000008152506040518060400160405280600381526020017f544b4e0000000000000000000000000000000000000000000000000000000000815250816003908162000099919062000318565b508060049081620000ab919062000318565b505050620003fc565b5f81519050919050565b7f4e487b71000000000000000000000000000000000000000000000000000000005f52604160045260245ffd5b7f4e487b71000000000000000000000000000000000000000000000000000000005f52602260045260245ffd5b5f60028204905060018216806200013057607f821691505b602082108103620001465762000145620000eb565b5b50919050565b5f819050815f5260205f209050919050565b5f6020601f8301049050919050565b5f82821b905092915050565b5f60088302620001aa7fffffffffffffffffffffffffffffffffffffffffffffffffffffffffffffffff826200016d565b620001b686836200016d565b95508019841693508086168417925050509392505050565b5f819050919050565b5f819050919050565b5f62000200620001fa620001f484620001ce565b620001d7565b620001ce565b9050919050565b5f819050919050565b6200021b83620001e0565b620002336200022a8262000207565b84845462000179565b825550505050565b5f90565b620002496200023b565b6200025681848462000210565b505050565b5b818110156200027d57620002715f826200023f565b6001810190506200025c565b5050565b601f821115620002cc5762000296816200014c565b620002a1846200015e565b81016020851015620002b1578190505b620002c9620002c0856200015e565b8301826200025b565b50505b505050565b5f82821c905092915050565b5f620002ee5f1984600802620002d1565b1980831691505092915050565b5f620003088383620002dd565b9150826002028217905092915050565b6200032382620000b4565b67ffffffffffffffff8111156200033f576200033e620000be565b5b6200034b825462000118565b6200035882828562000281565b5f60209050601f8311600181146200038e575f841562000379578287015190505b620003858582620002fb565b865550620003f4565b601f1984166200039e866200014c565b5f5b82811015620003c757848901518255600182019150602085019450602081019050620003a0565b86831015620003e75784890151620003e3601f891682620002dd565b8355505b6001600288020188555050505b505050505050565b611d92806200040a5f395ff3fe608060405234801561000f575f80fd5b50600436106100cd575f3560e01c8063395093511161008a578063a457c2d711610064578063a457c2d714610225578063a9059cbb14610255578063dd62ed3e14610285578063e4e103dc146102b5576100cd565b806339509351146101a757806370a08231146101d757806395d89b4114610207576100cd565b806306fdde03146100d1578063095ea7b3146100ef57806318160ddd1461011f57806322f667ae1461013d57806323b872dd14610159578063313ce56714610189575b5f80fd5b6100d96102d1565b6040516100e69190611110565b60405180910390f35b610109600480360381019061010491906111c1565b610361565b6040516101169190611219565b60405180910390f35b610127610383565b6040516101349190611241565b60405180910390f35b6101576004803603810190610152919061125a565b61038c565b005b610173600480360381019061016e91906112be565b610624565b6040516101809190611219565b60405180910390f35b610191610652565b60405161019e9190611329565b60405180910390f35b6101c160048036038101906101bc91906111c1565b61065a565b6040516101ce9190611219565b60405180910390f35b6101f160048036038101906101ec9190611342565b610690565b6040516101fe9190611241565b60405180910390f35b61020f6106d5565b60405161021c9190611110565b60405180910390f35b61023f600480360381019061023a91906111c1565b610765565b60405161024c9190611219565b60405180910390f35b61026f600480360381019061026a91906111c1565b6107da565b60405161027c9190611219565b60405180910390f35b61029f600480360381019061029a919061136d565b6107fc565b6040516102ac9190611241565b60405180910390f35b6102cf60048036038101906102ca91906111c1565b61087e565b005b6060600380546102e0906113d8565b80601f016020809104026020016040519081016040528092919081815260200182805461030c906113d8565b80156103575780601f1061032e57610100808354040283529160200191610357565b820191905f5260205f20905b81548152906001019060200180831161033a57829003601f168201915b5050505050905090565b5f8061036b6108aa565b90506103788185856108b1565b600191505092915050565b5f600254905090565b5f8173ffffffffffffffffffffffffffffffffffffffff1663264a1d9386866040518363ffffffff1660e01b81526004016103c8929190611417565b602060405180830381865afa1580156103e3573d5f803e3d5ffd5b505050506040513d601f19601f820116820180604052508101906104079190611452565b90505f8173ffffffffffffffffffffffffffffffffffffffff1663c43a4b216040518163ffffffff1660e01b8152600401602060405180830381865afa158015610453573d5f803e3d5ffd5b505050506040513d601f19601f820116820180604052508101906104779190611491565b90505f8460055461048891906114e9565b9050818110156104cd576040517f08c379a00000000000000000000000000000000000000000000000000000000081526004016104c490611574565b60405180910390fd5b5f600554836104dc91906115bf565b90506104e6610652565b600a6104f2919061171e565b816104fd91906114e9565b61050d6105086108aa565b610690565b101561054e576040517f08c379a0000000000000000000000000000000000000000000000000000000008152600401610545906117b2565b60405180910390fd5b61057e8861055a6108aa565b610562610652565b600a61056e919061171e565b8461057991906114e9565b610a74565b6105ad6105896108aa565b610591610652565b600a61059d919061171e565b836105a891906114e9565b610aff565b8373ffffffffffffffffffffffffffffffffffffffff16639658310c6105d16108aa565b6040518263ffffffff1660e01b81526004016105ed91906117d0565b5f604051808303815f87803b158015610604575f80fd5b505af1158015610616573d5f803e3d5ffd5b505050505050505050505050565b5f8061062e6108aa565b905061063b858285610a74565b610646858585610cc2565b60019150509392505050565b5f6012905090565b5f806106646108aa565b905061068581858561067685896107fc565b61068091906117e9565b6108b1565b600191505092915050565b5f805f8373ffffffffffffffffffffffffffffffffffffffff1673ffffffffffffffffffffffffffffffffffffffff1681526020019081526020015f20549050919050565b6060600480546106e4906113d8565b80601f0160208091040260200160405190810160405280929190818152602001828054610710906113d8565b801561075b5780601f106107325761010080835404028352916020019161075b565b820191905f5260205f20905b81548152906001019060200180831161073e57829003601f168201915b5050505050905090565b5f8061076f6108aa565b90505f61077c82866107fc565b9050838110156107c1576040517f08c379a00000000000000000000000000000000000000000000000000000000081526004016107b89061188c565b60405180910390fd5b6107ce82868684036108b1565b60019250505092915050565b5f806107e46108aa565b90506107f1818585610cc2565b600191505092915050565b5f60015f8473ffffffffffffffffffffffffffffffffffffffff1673ffffffffffffffffffffffffffffffffffffffff1681526020019081526020015f205f8373ffffffffffffffffffffffffffffffffffffffff1673ffffffffffffffffffffffffffffffffffffffff1681526020019081526020015f2054905092915050565b6108a68261088a610652565b600a610896919061171e565b836108a191906114e9565b610f2e565b5050565b5f33905090565b5f73ffffffffffffffffffffffffffffffffffffffff168373ffffffffffffffffffffffffffffffffffffffff160361091f576040517f08c379a00000000000000000000000000000000000000000000000000000000081526004016109169061191a565b60405180910390fd5b5f73ffffffffffffffffffffffffffffffffffffffff168273ffffffffffffffffffffffffffffffffffffffff160361098d576040517f08c379a0000000000000000000000000000000000000000000000000000000008152600401610984906119a8565b60405180910390fd5b8060015f8573ffffffffffffffffffffffffffffffffffffffff1673ffffffffffffffffffffffffffffffffffffffff1681526020019081526020015f205f8473ffffffffffffffffffffffffffffffffffffffff1673ffffffffffffffffffffffffffffffffffffffff1681526020019081526020015f20819055508173ffffffffffffffffffffffffffffffffffffffff168373ffffffffffffffffffffffffffffffffffffffff167f8c5be1e5ebec7d5bd14f71427d1e84f3dd0314c0f7b2291e5b200ac8c7c3b92583604051610a679190611241565b60405180910390a3505050565b5f610a7f84846107fc565b90507fffffffffffffffffffffffffffffffffffffffffffffffffffffffffffffffff8114610af95781811015610aeb576040517f08c379a0000000000000000000000000000000000000000000000000000000008152600401610ae290611a10565b60405180910390fd5b610af884848484036108b1565b5b50505050565b5f73ffffffffffffffffffffffffffffffffffffffff168273ffffffffffffffffffffffffffffffffffffffff1603610b6d576040517f08c379a0000000000000000000000000000000000000000000000000000000008152600401610b6490611a9e565b60405180910390fd5b610b78825f8361107c565b5f805f8473ffffffffffffffffffffffffffffffffffffffff1673ffffffffffffffffffffffffffffffffffffffff1681526020019081526020015f2054905081811015610bfb576040517f08c379a0000000000000000000000000000000000000000000000000000000008152600401610bf290611b2c565b60405180910390fd5b8181035f808573ffffffffffffffffffffffffffffffffffffffff1673ffffffffffffffffffffffffffffffffffffffff1681526020019081526020015f20819055508160025f82825403925050819055505f73ffffffffffffffffffffffffffffffffffffffff168373ffffffffffffffffffffffffffffffffffffffff167fddf252ad1be2c89b69c2b068fc378daa952ba7f163c4a11628f55a4df523b3ef84604051610caa9190611241565b60405180910390a3610cbd835f84611081565b505050565b5f73ffffffffffffffffffffffffffffffffffffffff168373ffffffffffffffffffffffffffffffffffffffff1603610d30576040517f08c379a0000000000000000000000000000000000000000000000000000000008152600401610d2790611bba565b60405180910390fd5b5f73ffffffffffffffffffffffffffffffffffffffff168273ffffffffffffffffffffffffffffffffffffffff1603610d9e576040517f08c379a0000000000000000000000000000000000000000000000000000000008152600401610d9590611c48565b60405180910390fd5b610da983838361107c565b5f805f8573ffffffffffffffffffffffffffffffffffffffff1673ffffffffffffffffffffffffffffffffffffffff1681526020019081526020015f2054905081811015610e2c576040517f08c379a0000000000000000000000000000000000000000000000000000000008152600401610e2390611cd6565b60405180910390fd5b8181035f808673ffffffffffffffffffffffffffffffffffffffff1673ffffffffffffffffffffffffffffffffffffffff1681526020019081526020015f2081905550815f808573ffffffffffffffffffffffffffffffffffffffff1673ffffffffffffffffffffffffffffffffffffffff1681526020019081526020015f205f82825401925050819055508273ffffffffffffffffffffffffffffffffffffffff168473ffffffffffffffffffffffffffffffffffffffff167fddf252ad1be2c89b69c2b068fc378daa952ba7f163c4a11628f55a4df523b3ef84604051610f159190611241565b60405180910390a3610f28848484611081565b50505050565b5f73ffffffffffffffffffffffffffffffffffffffff168273ffffffffffffffffffffffffffffffffffffffff1603610f9c576040517f08c379a0000000000000000000000000000000000000000000000000000000008152600401610f9390611d3e565b60405180910390fd5b610fa75f838361107c565b8060025f828254610fb891906117e9565b92505081905550805f808473ffffffffffffffffffffffffffffffffffffffff1673ffffffffffffffffffffffffffffffffffffffff1681526020019081526020015f205f82825401925050819055508173ffffffffffffffffffffffffffffffffffffffff165f73ffffffffffffffffffffffffffffffffffffffff167fddf252ad1be2c89b69c2b068fc378daa952ba7f163c4a11628f55a4df523b3ef836040516110659190611241565b60405180910390a36110785f8383611081565b5050565b505050565b505050565b5f81519050919050565b5f82825260208201905092915050565b5f5b838110156110bd5780820151818401526020810190506110a2565b5f8484015250505050565b5f601f19601f8301169050919050565b5f6110e282611086565b6110ec8185611090565b93506110fc8185602086016110a0565b611105816110c8565b840191505092915050565b5f6020820190508181035f83015261112881846110d8565b905092915050565b5f80fd5b5f73ffffffffffffffffffffffffffffffffffffffff82169050919050565b5f61115d82611134565b9050919050565b61116d81611153565b8114611177575f80fd5b50565b5f8135905061118881611164565b92915050565b5f819050919050565b6111a08161118e565b81146111aa575f80fd5b50565b5f813590506111bb81611197565b92915050565b5f80604083850312156111d7576111d6611130565b5b5f6111e48582860161117a565b92505060206111f5858286016111ad565b9150509250929050565b5f8115159050919050565b611213816111ff565b82525050565b5f60208201905061122c5f83018461120a565b92915050565b61123b8161118e565b82525050565b5f6020820190506112545f830184611232565b92915050565b5f805f806080858703121561127257611271611130565b5b5f61127f8782880161117a565b9450506020611290878288016111ad565b93505060406112a1878288016111ad565b92505060606112b28782880161117a565b91505092959194509250565b5f805f606084860312156112d5576112d4611130565b5b5f6112e28682870161117a565b93505060206112f38682870161117a565b9250506040611304868287016111ad565b9150509250925092565b5f60ff82169050919050565b6113238161130e565b82525050565b5f60208201905061133c5f83018461131a565b92915050565b5f6020828403121561135757611356611130565b5b5f6113648482850161117a565b91505092915050565b5f806040838503121561138357611382611130565b5b5f6113908582860161117a565b92505060206113a18582860161117a565b9150509250929050565b7f4e487b71000000000000000000000000000000000000000000000000000000005f52602260045260245ffd5b5f60028204905060018216806113ef57607f821691505b602082108103611402576114016113ab565b5b50919050565b61141181611153565b82525050565b5f60408201905061142a5f830185611408565b6114376020830184611232565b9392505050565b5f8151905061144c81611164565b92915050565b5f6020828403121561146757611466611130565b5b5f6114748482850161143e565b91505092915050565b5f8151905061148b81611197565b92915050565b5f602082840312156114a6576114a5611130565b5b5f6114b38482850161147d565b91505092915050565b7f4e487b71000000000000000000000000000000000000000000000000000000005f52601160045260245ffd5b5f6114f38261118e565b91506114fe8361118e565b925082820261150c8161118e565b91508282048414831517611523576115226114bc565b5b5092915050565b7f4e6f7420656e6f75676820746f6b656e730000000000000000000000000000005f82015250565b5f61155e601183611090565b91506115698261152a565b602082019050919050565b5f6020820190508181035f83015261158b81611552565b9050919050565b7f4e487b71000000000000000000000000000000000000000000000000000000005f52601260045260245ffd5b5f6115c98261118e565b91506115d48361118e565b9250826115e4576115e3611592565b5b828204905092915050565b5f8160011c9050919050565b5f808291508390505b6001851115611644578086048111156116205761161f6114bc565b5b600185161561162f5780820291505b808102905061163d856115ef565b9450611604565b94509492505050565b5f8261165c5760019050611717565b81611669575f9050611717565b816001811461167f5760028114611689576116b8565b6001915050611717565b60ff84111561169b5761169a6114bc565b5b8360020a9150848211156116b2576116b16114bc565b5b50611717565b5060208310610133831016604e8410600b84101617156116ed5782820a9050838111156116e8576116e76114bc565b5b611717565b6116fa84848460016115fb565b92509050818404811115611711576117106114bc565b5b81810290505b9392505050565b5f6117288261118e565b91506117338361130e565b92506117607fffffffffffffffffffffffffffffffffffffffffffffffffffffffffffffffff848461164d565b905092915050565b7f496e73756666696369656e742062616c616e63650000000000000000000000005f82015250565b5f61179c601483611090565b91506117a782611768565b602082019050919050565b5f6020820190508181035f8301526117c981611790565b9050919050565b5f6020820190506117e35f830184611408565b92915050565b5f6117f38261118e565b91506117fe8361118e565b9250828201905080821115611816576118156114bc565b5b92915050565b7f45524332303a2064656372656173656420616c6c6f77616e63652062656c6f775f8201527f207a65726f000000000000000000000000000000000000000000000000000000602082015250565b5f611876602583611090565b91506118818261181c565b604082019050919050565b5f6020820190508181035f8301526118a38161186a565b9050919050565b7f45524332303a20617070726f76652066726f6d20746865207a65726f206164645f8201527f7265737300000000000000000000000000000000000000000000000000000000602082015250565b5f611904602483611090565b915061190f826118aa565b604082019050919050565b5f6020820190508181035f830152611931816118f8565b9050919050565b7f45524332303a20617070726f766520746f20746865207a65726f2061646472655f8201527f7373000000000000000000000000000000000000000000000000000000000000602082015250565b5f611992602283611090565b915061199d82611938565b604082019050919050565b5f6020820190508181035f8301526119bf81611986565b9050919050565b7f45524332303a20696e73756666696369656e7420616c6c6f77616e63650000005f82015250565b5f6119fa601d83611090565b9150611a05826119c6565b602082019050919050565b5f6020820190508181035f830152611a27816119ee565b9050919050565b7f45524332303a206275726e2066726f6d20746865207a65726f206164647265735f8201527f7300000000000000000000000000000000000000000000000000000000000000602082015250565b5f611a88602183611090565b9150611a9382611a2e565b604082019050919050565b5f6020820190508181035f830152611ab581611a7c565b9050919050565b7f45524332303a206275726e20616d6f756e7420657863656564732062616c616e5f8201527f6365000000000000000000000000000000000000000000000000000000000000602082015250565b5f611b16602283611090565b9150611b2182611abc565b604082019050919050565b5f6020820190508181035f830152611b4381611b0a565b9050919050565b7f45524332303a207472616e736665722066726f6d20746865207a65726f2061645f8201527f6472657373000000000000000000000000000000000000000000000000000000602082015250565b5f611ba4602583611090565b9150611baf82611b4a565b604082019050919050565b5f6020820190508181035f830152611bd181611b98565b9050919050565b7f45524332303a207472616e7366657220746f20746865207a65726f20616464725f8201527f6573730000000000000000000000000000000000000000000000000000000000602082015250565b5f611c32602383611090565b9150611c3d82611bd8565b604082019050919050565b5f6020820190508181035f830152611c5f81611c26565b9050919050565b7f45524332303a207472616e7366657220616d6f756e74206578636565647320625f8201527f616c616e63650000000000000000000000000000000000000000000000000000602082015250565b5f611cc0602683611090565b9150611ccb82611c66565b604082019050919050565b5f6020820190508181035f830152611ced81611cb4565b9050919050565b7f45524332303a206d696e7420746f20746865207a65726f2061646472657373005f82015250565b5f611d28601f83611090565b9150611d3382611cf4565b602082019050919050565b5f6020820190508181035f830152611d5581611d1c565b905091905056fea26469706673582212208d21124ca01767c0078f5625b488f015010c9177d22f9ad76c94ec87094717b464736f6c63430008140033",
  "immutableReferences": {},
  "source": "// SPDX-License-Identifier: MIT\r\npragma solidity ^0.8.9;\r\n\r\nimport \"@openzeppelin/contracts/token/ERC20/ERC20.sol\";\r\nimport \"@openzeppelin/contracts/access/Ownable.sol\";\r\n\r\ninterface ICourse {\r\n    function getCoursePriceInWei() external view returns (uint);\r\n    function payInTokens(address) external  payable;\r\n}\r\n\r\ninterface ICourseManager {\r\n    function getCourse(address owner, uint courseId) external  view returns (address);\r\n}\r\n\r\ncontract Token is ERC20 {\r\n\r\n    uint tokenPriceInWeiPerUnit  = 0.001 ether;\r\n\r\n    constructor() ERC20(\"Token\", \"TKN\") {\r\n    }\r\n\r\n    event CoursePurchased(address indexed receiver,address indexed buyer);\r\n\r\n    function rewardUser(address to, uint256 amount) public {\r\n        _mint(to, amount* 10 ** decimals());\r\n    }\r\n\r\n    function buyCourse(address owner,uint courseId,uint amount,address courseManagerAddress) public{\r\n        address course = ICourseManager(courseManagerAddress).getCourse(owner,courseId);\r\n        uint courserPriceInWei = ICourse(course).getCoursePriceInWei();\r\n\r\n        uint ammountInWei = tokenPriceInWeiPerUnit * amount;\r\n        require(ammountInWei >=courserPriceInWei, \"Not enough tokens\");\r\n\r\n        uint amountToReduce = courserPriceInWei / tokenPriceInWeiPerUnit;\r\n        require(balanceOf(_msgSender()) >= amountToReduce * 10 ** decimals(), \"Insufficient balance\");\r\n\r\n        _spendAllowance(owner, _msgSender(), amountToReduce* 10 ** decimals());\r\n        _burn(_msgSender(), amountToReduce* 10 ** decimals());\r\n\r\n        ICourse(course).payInTokens(_msgSender());\r\n    }\r\n}\r\n",
  "sourcePath": "C:\\Stefan\\Serverless-Ethereum\\smart_contracts\\contracts\\Token.sol",
  "compiler": {
    "name": "solc",
    "version": "0.8.20+commit.a1b79de6.Emscripten.clang"
  },
  "schemaVersion": "3.4.14",
  "updatedAt": "2023-08-04T19:44:24.189Z",
  "devdoc": {
    "events": {
      "Approval(address,address,uint256)": {
        "details": "Emitted when the allowance of a `spender` for an `owner` is set by a call to {approve}. `value` is the new allowance."
      },
      "Transfer(address,address,uint256)": {
        "details": "Emitted when `value` tokens are moved from one account (`from`) to another (`to`). Note that `value` may be zero."
      }
    },
    "kind": "dev",
    "methods": {
      "allowance(address,address)": {
        "details": "See {IERC20-allowance}."
      },
      "approve(address,uint256)": {
        "details": "See {IERC20-approve}. NOTE: If `amount` is the maximum `uint256`, the allowance is not updated on `transferFrom`. This is semantically equivalent to an infinite approval. Requirements: - `spender` cannot be the zero address."
      },
      "balanceOf(address)": {
        "details": "See {IERC20-balanceOf}."
      },
      "decimals()": {
        "details": "Returns the number of decimals used to get its user representation. For example, if `decimals` equals `2`, a balance of `505` tokens should be displayed to a user as `5.05` (`505 / 10 ** 2`). Tokens usually opt for a value of 18, imitating the relationship between Ether and Wei. This is the default value returned by this function, unless it's overridden. NOTE: This information is only used for _display_ purposes: it in no way affects any of the arithmetic of the contract, including {IERC20-balanceOf} and {IERC20-transfer}."
      },
      "decreaseAllowance(address,uint256)": {
        "details": "Atomically decreases the allowance granted to `spender` by the caller. This is an alternative to {approve} that can be used as a mitigation for problems described in {IERC20-approve}. Emits an {Approval} event indicating the updated allowance. Requirements: - `spender` cannot be the zero address. - `spender` must have allowance for the caller of at least `subtractedValue`."
      },
      "increaseAllowance(address,uint256)": {
        "details": "Atomically increases the allowance granted to `spender` by the caller. This is an alternative to {approve} that can be used as a mitigation for problems described in {IERC20-approve}. Emits an {Approval} event indicating the updated allowance. Requirements: - `spender` cannot be the zero address."
      },
      "name()": {
        "details": "Returns the name of the token."
      },
      "symbol()": {
        "details": "Returns the symbol of the token, usually a shorter version of the name."
      },
      "totalSupply()": {
        "details": "See {IERC20-totalSupply}."
      },
      "transfer(address,uint256)": {
        "details": "See {IERC20-transfer}. Requirements: - `to` cannot be the zero address. - the caller must have a balance of at least `amount`."
      },
      "transferFrom(address,address,uint256)": {
        "details": "See {IERC20-transferFrom}. Emits an {Approval} event indicating the updated allowance. This is not required by the EIP. See the note at the beginning of {ERC20}. NOTE: Does not update the allowance if the current allowance is the maximum `uint256`. Requirements: - `from` and `to` cannot be the zero address. - `from` must have a balance of at least `amount`. - the caller must have allowance for ``from``'s tokens of at least `amount`."
      }
    },
    "version": 1
  },
  "userdoc": {
    "kind": "user",
    "methods": {},
    "version": 1
  }
}